{
  "_format": "hh-sol-artifact-1",
  "contractName": "BatchRelayerLibrary",
  "sourceName": "contracts/BatchRelayerLibrary.sol",
  "abi": [
    {
      "inputs": [
        {
          "internalType": "contract IVault",
          "name": "vault",
          "type": "address"
        },
        {
          "internalType": "contract IMasterChef",
          "name": "masterChef",
          "type": "address"
        },
        {
          "internalType": "contract IBooMirrorWorld",
          "name": "mirrorWorld",
          "type": "address"
        },
        {
          "internalType": "contract IFBeetsBar",
          "name": "fBeetsBar",
          "type": "address"
        },
        {
          "internalType": "contract IReliquary",
          "name": "reliquary",
          "type": "address"
        }
      ],
      "stateMutability": "nonpayable",
      "type": "constructor"
    },
    {
      "inputs": [
        {
          "internalType": "contract IERC20",
          "name": "token",
          "type": "address"
        },
        {
          "internalType": "uint256",
          "name": "amount",
          "type": "uint256"
        }
      ],
      "name": "approveVault",
      "outputs": [],
      "stateMutability": "payable",
      "type": "function"
    },
    {
      "inputs": [
        {
          "internalType": "enum IVault.SwapKind",
          "name": "kind",
          "type": "uint8"
        },
        {
          "components": [
            {
              "internalType": "bytes32",
              "name": "poolId",
              "type": "bytes32"
            },
            {
              "internalType": "uint256",
              "name": "assetInIndex",
              "type": "uint256"
            },
            {
              "internalType": "uint256",
              "name": "assetOutIndex",
              "type": "uint256"
            },
            {
              "internalType": "uint256",
              "name": "amount",
              "type": "uint256"
            },
            {
              "internalType": "bytes",
              "name": "userData",
              "type": "bytes"
            }
          ],
          "internalType": "struct IVault.BatchSwapStep[]",
          "name": "swaps",
          "type": "tuple[]"
        },
        {
          "internalType": "contract IAsset[]",
          "name": "assets",
          "type": "address[]"
        },
        {
          "components": [
            {
              "internalType": "address",
              "name": "sender",
              "type": "address"
            },
            {
              "internalType": "bool",
              "name": "fromInternalBalance",
              "type": "bool"
            },
            {
              "internalType": "address payable",
              "name": "recipient",
              "type": "address"
            },
            {
              "internalType": "bool",
              "name": "toInternalBalance",
              "type": "bool"
            }
          ],
          "internalType": "struct IVault.FundManagement",
          "name": "funds",
          "type": "tuple"
        },
        {
          "internalType": "int256[]",
          "name": "limits",
          "type": "int256[]"
        },
        {
          "internalType": "uint256",
          "name": "deadline",
          "type": "uint256"
        },
        {
          "internalType": "uint256",
          "name": "value",
          "type": "uint256"
        },
        {
          "components": [
            {
              "internalType": "uint256",
              "name": "index",
              "type": "uint256"
            },
            {
              "internalType": "uint256",
              "name": "key",
              "type": "uint256"
            }
          ],
          "internalType": "struct VaultActions.OutputReference[]",
          "name": "outputReferences",
          "type": "tuple[]"
        }
      ],
      "name": "batchSwap",
      "outputs": [],
      "stateMutability": "payable",
      "type": "function"
    },
    {
      "inputs": [
        {
          "internalType": "address",
          "name": "sender",
          "type": "address"
        },
        {
          "internalType": "address",
          "name": "recipient",
          "type": "address"
        },
        {
          "internalType": "uint256",
          "name": "amount",
          "type": "uint256"
        },
        {
          "internalType": "uint256",
          "name": "outputReference",
          "type": "uint256"
        }
      ],
      "name": "booMirrorWorldEnter",
      "outputs": [],
      "stateMutability": "payable",
      "type": "function"
    },
    {
      "inputs": [
        {
          "internalType": "address",
          "name": "sender",
          "type": "address"
        },
        {
          "internalType": "address",
          "name": "recipient",
          "type": "address"
        },
        {
          "internalType": "uint256",
          "name": "amount",
          "type": "uint256"
        },
        {
          "internalType": "uint256",
          "name": "outputReference",
          "type": "uint256"
        }
      ],
      "name": "booMirrorWorldLeave",
      "outputs": [],
      "stateMutability": "payable",
      "type": "function"
    },
    {
      "inputs": [
        {
          "internalType": "bytes32",
          "name": "poolId",
          "type": "bytes32"
        },
        {
          "internalType": "enum VaultActions.PoolKind",
          "name": "kind",
          "type": "uint8"
        },
        {
          "internalType": "address",
          "name": "sender",
          "type": "address"
        },
        {
          "internalType": "address payable",
          "name": "recipient",
          "type": "address"
        },
        {
          "components": [
            {
              "internalType": "contract IAsset[]",
              "name": "assets",
              "type": "address[]"
            },
            {
              "internalType": "uint256[]",
              "name": "minAmountsOut",
              "type": "uint256[]"
            },
            {
              "internalType": "bytes",
              "name": "userData",
              "type": "bytes"
            },
            {
              "internalType": "bool",
              "name": "toInternalBalance",
              "type": "bool"
            }
          ],
          "internalType": "struct IVault.ExitPoolRequest",
          "name": "request",
          "type": "tuple"
        },
        {
          "components": [
            {
              "internalType": "uint256",
              "name": "index",
              "type": "uint256"
            },
            {
              "internalType": "uint256",
              "name": "key",
              "type": "uint256"
            }
          ],
          "internalType": "struct VaultActions.OutputReference[]",
          "name": "outputReferences",
          "type": "tuple[]"
        }
      ],
      "name": "exitPool",
      "outputs": [],
      "stateMutability": "payable",
      "type": "function"
    },
    {
      "inputs": [
        {
          "internalType": "address",
          "name": "sender",
          "type": "address"
        },
        {
          "internalType": "address",
          "name": "recipient",
          "type": "address"
        },
        {
          "internalType": "uint256",
          "name": "amount",
          "type": "uint256"
        },
        {
          "internalType": "uint256",
          "name": "outputReference",
          "type": "uint256"
        }
      ],
      "name": "fBeetsBarEnter",
      "outputs": [],
      "stateMutability": "payable",
      "type": "function"
    },
    {
      "inputs": [
        {
          "internalType": "address",
          "name": "sender",
          "type": "address"
        },
        {
          "internalType": "address",
          "name": "recipient",
          "type": "address"
        },
        {
          "internalType": "uint256",
          "name": "amount",
          "type": "uint256"
        },
        {
          "internalType": "uint256",
          "name": "outputReference",
          "type": "uint256"
        }
      ],
      "name": "fBeetsBarLeave",
      "outputs": [],
      "stateMutability": "payable",
      "type": "function"
    },
    {
      "inputs": [],
      "name": "getEntrypoint",
      "outputs": [
        {
          "internalType": "contract IBalancerRelayer",
          "name": "",
          "type": "address"
        }
      ],
      "stateMutability": "view",
      "type": "function"
    },
    {
      "inputs": [],
      "name": "getVault",
      "outputs": [
        {
          "internalType": "contract IVault",
          "name": "",
          "type": "address"
        }
      ],
      "stateMutability": "view",
      "type": "function"
    },
    {
      "inputs": [
        {
          "internalType": "bytes32",
          "name": "poolId",
          "type": "bytes32"
        },
        {
          "internalType": "enum VaultActions.PoolKind",
          "name": "kind",
          "type": "uint8"
        },
        {
          "internalType": "address",
          "name": "sender",
          "type": "address"
        },
        {
          "internalType": "address",
          "name": "recipient",
          "type": "address"
        },
        {
          "components": [
            {
              "internalType": "contract IAsset[]",
              "name": "assets",
              "type": "address[]"
            },
            {
              "internalType": "uint256[]",
              "name": "maxAmountsIn",
              "type": "uint256[]"
            },
            {
              "internalType": "bytes",
              "name": "userData",
              "type": "bytes"
            },
            {
              "internalType": "bool",
              "name": "fromInternalBalance",
              "type": "bool"
            }
          ],
          "internalType": "struct IVault.JoinPoolRequest",
          "name": "request",
          "type": "tuple"
        },
        {
          "internalType": "uint256",
          "name": "value",
          "type": "uint256"
        },
        {
          "internalType": "uint256",
          "name": "outputReference",
          "type": "uint256"
        }
      ],
      "name": "joinPool",
      "outputs": [],
      "stateMutability": "payable",
      "type": "function"
    },
    {
      "inputs": [
        {
          "components": [
            {
              "internalType": "enum IVault.UserBalanceOpKind",
              "name": "kind",
              "type": "uint8"
            },
            {
              "internalType": "contract IAsset",
              "name": "asset",
              "type": "address"
            },
            {
              "internalType": "uint256",
              "name": "amount",
              "type": "uint256"
            },
            {
              "internalType": "address",
              "name": "sender",
              "type": "address"
            },
            {
              "internalType": "address payable",
              "name": "recipient",
              "type": "address"
            }
          ],
          "internalType": "struct IVault.UserBalanceOp[]",
          "name": "ops",
          "type": "tuple[]"
        },
        {
          "internalType": "uint256",
          "name": "value",
          "type": "uint256"
        }
      ],
      "name": "manageUserBalance",
      "outputs": [],
      "stateMutability": "payable",
      "type": "function"
    },
    {
      "inputs": [
        {
          "internalType": "address",
          "name": "sender",
          "type": "address"
        },
        {
          "internalType": "address",
          "name": "recipient",
          "type": "address"
        },
        {
          "internalType": "contract IERC20",
          "name": "token",
          "type": "address"
        },
        {
          "internalType": "uint256",
          "name": "pid",
          "type": "uint256"
        },
        {
          "internalType": "uint256",
          "name": "amount",
          "type": "uint256"
        },
        {
          "internalType": "uint256",
          "name": "outputReference",
          "type": "uint256"
        }
      ],
      "name": "masterChefDeposit",
      "outputs": [],
      "stateMutability": "payable",
      "type": "function"
    },
    {
      "inputs": [
        {
          "internalType": "uint256",
          "name": "ref",
          "type": "uint256"
        }
      ],
      "name": "peekChainedReferenceValue",
      "outputs": [
        {
          "internalType": "uint256",
          "name": "value",
          "type": "uint256"
        }
      ],
      "stateMutability": "view",
      "type": "function"
    },
    {
      "inputs": [
        {
          "internalType": "address",
          "name": "sender",
          "type": "address"
        },
        {
          "internalType": "address",
          "name": "recipient",
          "type": "address"
        },
        {
          "internalType": "contract IERC20",
          "name": "token",
          "type": "address"
        },
        {
          "internalType": "uint256",
          "name": "poolId",
          "type": "uint256"
        },
        {
          "internalType": "uint256",
          "name": "amount",
          "type": "uint256"
        },
        {
          "internalType": "uint256",
          "name": "outputReference",
          "type": "uint256"
        }
      ],
      "name": "reliquaryCreateRelicAndDeposit",
      "outputs": [],
      "stateMutability": "payable",
      "type": "function"
    },
    {
      "inputs": [
        {
          "internalType": "address",
          "name": "sender",
          "type": "address"
        },
        {
          "internalType": "contract IERC20",
          "name": "token",
          "type": "address"
        },
        {
          "internalType": "uint256",
          "name": "relicId",
          "type": "uint256"
        },
        {
          "internalType": "uint256",
          "name": "amount",
          "type": "uint256"
        },
        {
          "internalType": "uint256",
          "name": "outputReference",
          "type": "uint256"
        }
      ],
      "name": "reliquaryDeposit",
      "outputs": [],
      "stateMutability": "payable",
      "type": "function"
    },
    {
      "inputs": [
        {
          "internalType": "uint256[]",
          "name": "relicIds",
          "type": "uint256[]"
        },
        {
          "internalType": "address",
          "name": "recipient",
          "type": "address"
        }
      ],
      "name": "reliquaryHarvestAll",
      "outputs": [],
      "stateMutability": "payable",
      "type": "function"
    },
    {
      "inputs": [
        {
          "internalType": "address",
          "name": "recipient",
          "type": "address"
        },
        {
          "internalType": "uint256",
          "name": "relicId",
          "type": "uint256"
        },
        {
          "internalType": "uint256",
          "name": "amount",
          "type": "uint256"
        },
        {
          "internalType": "uint256",
          "name": "outputReference",
          "type": "uint256"
        }
      ],
      "name": "reliquaryWithdrawAndHarvest",
      "outputs": [],
      "stateMutability": "payable",
      "type": "function"
    },
    {
      "inputs": [
        {
          "internalType": "address",
          "name": "relayer",
          "type": "address"
        },
        {
          "internalType": "bool",
          "name": "approved",
          "type": "bool"
        },
        {
          "internalType": "bytes",
          "name": "authorisation",
          "type": "bytes"
        }
      ],
      "name": "setRelayerApproval",
      "outputs": [],
      "stateMutability": "payable",
      "type": "function"
    },
    {
      "inputs": [
        {
          "components": [
            {
              "internalType": "bytes32",
              "name": "poolId",
              "type": "bytes32"
            },
            {
              "internalType": "enum IVault.SwapKind",
              "name": "kind",
              "type": "uint8"
            },
            {
              "internalType": "contract IAsset",
              "name": "assetIn",
              "type": "address"
            },
            {
              "internalType": "contract IAsset",
              "name": "assetOut",
              "type": "address"
            },
            {
              "internalType": "uint256",
              "name": "amount",
              "type": "uint256"
            },
            {
              "internalType": "bytes",
              "name": "userData",
              "type": "bytes"
            }
          ],
          "internalType": "struct IVault.SingleSwap",
          "name": "singleSwap",
          "type": "tuple"
        },
        {
          "components": [
            {
              "internalType": "address",
              "name": "sender",
              "type": "address"
            },
            {
              "internalType": "bool",
              "name": "fromInternalBalance",
              "type": "bool"
            },
            {
              "internalType": "address payable",
              "name": "recipient",
              "type": "address"
            },
            {
              "internalType": "bool",
              "name": "toInternalBalance",
              "type": "bool"
            }
          ],
          "internalType": "struct IVault.FundManagement",
          "name": "funds",
          "type": "tuple"
        },
        {
          "internalType": "uint256",
          "name": "limit",
          "type": "uint256"
        },
        {
          "internalType": "uint256",
          "name": "deadline",
          "type": "uint256"
        },
        {
          "internalType": "uint256",
          "name": "value",
          "type": "uint256"
        },
        {
          "internalType": "uint256",
          "name": "outputReference",
          "type": "uint256"
        }
      ],
      "name": "swap",
      "outputs": [],
      "stateMutability": "payable",
      "type": "function"
    },
    {
      "inputs": [
        {
          "internalType": "contract ITarotSupplyVault",
          "name": "supplyVault",
          "type": "address"
        },
        {
          "internalType": "address",
          "name": "sender",
          "type": "address"
        },
        {
          "internalType": "address",
          "name": "recipient",
          "type": "address"
        },
        {
          "internalType": "uint256",
          "name": "amount",
          "type": "uint256"
        },
        {
          "internalType": "uint256",
          "name": "outputReference",
          "type": "uint256"
        }
      ],
      "name": "tarotSupplyVaultEnter",
      "outputs": [],
      "stateMutability": "payable",
      "type": "function"
    },
    {
      "inputs": [
        {
          "internalType": "contract ITarotSupplyVault",
          "name": "supplyVault",
          "type": "address"
        },
        {
          "internalType": "address",
          "name": "sender",
          "type": "address"
        },
        {
          "internalType": "address",
          "name": "recipient",
          "type": "address"
        },
        {
          "internalType": "uint256",
          "name": "amount",
          "type": "uint256"
        },
        {
          "internalType": "uint256",
          "name": "outputReference",
          "type": "uint256"
        }
      ],
      "name": "tarotSupplyVaultLeave",
      "outputs": [],
      "stateMutability": "payable",
      "type": "function"
    },
    {
      "inputs": [
        {
          "internalType": "contract IBeefyVault",
          "name": "vaultToken",
          "type": "address"
        },
        {
          "internalType": "address",
          "name": "sender",
          "type": "address"
        },
        {
          "internalType": "address",
          "name": "recipient",
          "type": "address"
        },
        {
          "internalType": "uint256",
          "name": "amount",
          "type": "uint256"
        },
        {
          "internalType": "uint256",
          "name": "outputReference",
          "type": "uint256"
        }
      ],
      "name": "unwrapBeefyVaultToken",
      "outputs": [],
      "stateMutability": "payable",
      "type": "function"
    },
    {
      "inputs": [
        {
          "internalType": "contract IERC4626",
          "name": "wrappedToken",
          "type": "address"
        },
        {
          "internalType": "address",
          "name": "sender",
          "type": "address"
        },
        {
          "internalType": "address",
          "name": "recipient",
          "type": "address"
        },
        {
          "internalType": "uint256",
          "name": "amount",
          "type": "uint256"
        },
        {
          "internalType": "uint256",
          "name": "outputReference",
          "type": "uint256"
        }
      ],
      "name": "unwrapERC4626",
      "outputs": [],
      "stateMutability": "payable",
      "type": "function"
    },
    {
      "inputs": [
        {
          "internalType": "contract IGearboxDieselToken",
          "name": "wrappedToken",
          "type": "address"
        },
        {
          "internalType": "address",
          "name": "sender",
          "type": "address"
        },
        {
          "internalType": "address",
          "name": "recipient",
          "type": "address"
        },
        {
          "internalType": "uint256",
          "name": "dieselAmount",
          "type": "uint256"
        },
        {
          "internalType": "uint256",
          "name": "outputReference",
          "type": "uint256"
        }
      ],
      "name": "unwrapGearbox",
      "outputs": [],
      "stateMutability": "payable",
      "type": "function"
    },
    {
      "inputs": [
        {
          "internalType": "contract IReaperTokenVault",
          "name": "vaultToken",
          "type": "address"
        },
        {
          "internalType": "address",
          "name": "sender",
          "type": "address"
        },
        {
          "internalType": "address",
          "name": "recipient",
          "type": "address"
        },
        {
          "internalType": "uint256",
          "name": "amount",
          "type": "uint256"
        },
        {
          "internalType": "uint256",
          "name": "outputReference",
          "type": "uint256"
        }
      ],
      "name": "unwrapReaperVaultToken",
      "outputs": [],
      "stateMutability": "payable",
      "type": "function"
    },
    {
      "inputs": [
        {
          "internalType": "contract IYearnTokenVault",
          "name": "wrappedToken",
          "type": "address"
        },
        {
          "internalType": "address",
          "name": "sender",
          "type": "address"
        },
        {
          "internalType": "address",
          "name": "recipient",
          "type": "address"
        },
        {
          "internalType": "uint256",
          "name": "amount",
          "type": "uint256"
        },
        {
          "internalType": "uint256",
          "name": "outputReference",
          "type": "uint256"
        }
      ],
      "name": "unwrapYearn",
      "outputs": [],
      "stateMutability": "payable",
      "type": "function"
    },
    {
      "inputs": [
        {
          "internalType": "contract IERC20Permit",
          "name": "token",
          "type": "address"
        },
        {
          "internalType": "address",
          "name": "owner",
          "type": "address"
        },
        {
          "internalType": "uint256",
          "name": "value",
          "type": "uint256"
        },
        {
          "internalType": "uint256",
          "name": "deadline",
          "type": "uint256"
        },
        {
          "internalType": "uint8",
          "name": "v",
          "type": "uint8"
        },
        {
          "internalType": "bytes32",
          "name": "r",
          "type": "bytes32"
        },
        {
          "internalType": "bytes32",
          "name": "s",
          "type": "bytes32"
        }
      ],
      "name": "vaultPermit",
      "outputs": [],
      "stateMutability": "payable",
      "type": "function"
    },
    {
      "inputs": [
        {
          "internalType": "contract IERC20PermitDAI",
          "name": "token",
          "type": "address"
        },
        {
          "internalType": "address",
          "name": "holder",
          "type": "address"
        },
        {
          "internalType": "uint256",
          "name": "nonce",
          "type": "uint256"
        },
        {
          "internalType": "uint256",
          "name": "expiry",
          "type": "uint256"
        },
        {
          "internalType": "bool",
          "name": "allowed",
          "type": "bool"
        },
        {
          "internalType": "uint8",
          "name": "v",
          "type": "uint8"
        },
        {
          "internalType": "bytes32",
          "name": "r",
          "type": "bytes32"
        },
        {
          "internalType": "bytes32",
          "name": "s",
          "type": "bytes32"
        }
      ],
      "name": "vaultPermitDAI",
      "outputs": [],
      "stateMutability": "payable",
      "type": "function"
    },
    {
      "inputs": [
        {
          "internalType": "contract IBeefyVault",
          "name": "vaultToken",
          "type": "address"
        },
        {
          "internalType": "address",
          "name": "sender",
          "type": "address"
        },
        {
          "internalType": "address",
          "name": "recipient",
          "type": "address"
        },
        {
          "internalType": "uint256",
          "name": "amount",
          "type": "uint256"
        },
        {
          "internalType": "uint256",
          "name": "outputReference",
          "type": "uint256"
        }
      ],
      "name": "wrapBeefyVaultToken",
      "outputs": [],
      "stateMutability": "payable",
      "type": "function"
    },
    {
      "inputs": [
        {
          "internalType": "contract IERC4626",
          "name": "wrappedToken",
          "type": "address"
        },
        {
          "internalType": "address",
          "name": "sender",
          "type": "address"
        },
        {
          "internalType": "address",
          "name": "recipient",
          "type": "address"
        },
        {
          "internalType": "uint256",
          "name": "amount",
          "type": "uint256"
        },
        {
          "internalType": "uint256",
          "name": "outputReference",
          "type": "uint256"
        }
      ],
      "name": "wrapERC4626",
      "outputs": [],
      "stateMutability": "payable",
      "type": "function"
    },
    {
      "inputs": [
        {
          "internalType": "contract IGearboxDieselToken",
          "name": "wrappedToken",
          "type": "address"
        },
        {
          "internalType": "address",
          "name": "sender",
          "type": "address"
        },
        {
          "internalType": "address",
          "name": "recipient",
          "type": "address"
        },
        {
          "internalType": "uint256",
          "name": "mainAmount",
          "type": "uint256"
        },
        {
          "internalType": "uint256",
          "name": "outputReference",
          "type": "uint256"
        }
      ],
      "name": "wrapGearbox",
      "outputs": [],
      "stateMutability": "payable",
      "type": "function"
    },
    {
      "inputs": [
        {
          "internalType": "contract IReaperTokenVault",
          "name": "vaultToken",
          "type": "address"
        },
        {
          "internalType": "address",
          "name": "sender",
          "type": "address"
        },
        {
          "internalType": "address",
          "name": "recipient",
          "type": "address"
        },
        {
          "internalType": "uint256",
          "name": "amount",
          "type": "uint256"
        },
        {
          "internalType": "uint256",
          "name": "outputReference",
          "type": "uint256"
        }
      ],
      "name": "wrapReaperVaultToken",
      "outputs": [],
      "stateMutability": "payable",
      "type": "function"
    },
    {
      "inputs": [
        {
          "internalType": "contract IYearnTokenVault",
          "name": "wrappedToken",
          "type": "address"
        },
        {
          "internalType": "address",
          "name": "sender",
          "type": "address"
        },
        {
          "internalType": "address",
          "name": "recipient",
          "type": "address"
        },
        {
          "internalType": "uint256",
          "name": "amount",
          "type": "uint256"
        },
        {
          "internalType": "uint256",
          "name": "outputReference",
          "type": "uint256"
        }
      ],
      "name": "wrapYearn",
      "outputs": [],
      "stateMutability": "payable",
      "type": "function"
    }
  ],
  "bytecode": "0x6101806040527fae1dc54057af8e8e5ce068cdd4383149c7efcb30e8fb95b592ee1594367fb50960e0523480156200003657600080fd5b506040516200666e3803806200666e83398101604081905262000059916200017d565b8082848688806001600160a01b031663ad5c46486040518163ffffffff1660e01b815260040160206040518083038186803b1580156200009857600080fd5b505afa158015620000ad573d6000803e3d6000fd5b505050506040513d601f19601f82011682018060405250810190620000d39190620001fc565b6001600160601b0319606091821b81166080529082901b1660a0526040518190309062000100906200016f565b6200010d92919062000222565b604051809103906000f0801580156200012a573d6000803e3d6000fd5b506001600160601b0319606091821b811660c05292811b83166101005292831b8216610120525091811b8216610140529190911b166101605250620002559350505050565b6107878062005ee783390190565b600080600080600060a0868803121562000195578081fd5b8551620001a2816200023c565b6020870151909550620001b5816200023c565b6040870151909450620001c8816200023c565b6060870151909350620001db816200023c565b6080870151909250620001ee816200023c565b809150509295509295909350565b6000602082840312156200020e578081fd5b81516200021b816200023c565b9392505050565b6001600160a01b0392831681529116602082015260400190565b6001600160a01b03811681146200025257600080fd5b50565b60805160601c60a05160601c60c05160601c60e0516101005160601c6101205160601c6101405160601c6101605160601c615bbb6200032c60003980610f965280611075528061113d528061127d528061132a52806118a0528061198d5280611a185280611ae95280611cd55280611d685280611eac5280611f595250806108bd52806108de528061238652806123a7525080610c375280610c585280612b175280612b38525080610cf65280610e505280610efd525080613c6c5250806113c15250806114c152806115fd525050615bbb6000f3fe6080604052600436106101fe5760003560e01c80638fe4624f1161011d578063d293f290116100b0578063ec98c3cf1161007f578063efe6910811610064578063efe6910814610459578063f3cab6851461046c578063f4dd54b014610499576101fe565b8063ec98c3cf14610433578063ecc0263714610446576101fe565b8063d293f290146103e7578063d80952d5146103fa578063db12b0321461040d578063e8210e3c14610420576101fe565b8063ae298cec116100ec578063ae298cec1461039b578063aeddf95b146103ae578063b6d24737146103c1578063bd5f67a8146103d4576101fe565b80638fe4624f1461034f5780639072d9fe14610362578063959fc17a14610375578063a7faf77f14610388576101fe565b80637532aa491161019557806380db15bd1161016457806380db15bd146103015780638b35ac8d146103145780638d64cfbc146103275780638d928af81461033a576101fe565b80637532aa491461029d57806379e7433e146102b05780637ec783bb146102c35780637fd0e5d5146102d6576101fe565b80634791781f116101d15780634791781f146102515780634f06a70b1461026457806355c6f6f7146102775780636d307ea81461028a576101fe565b8063138fdc2c14610203578063183694461461021857806326a228f51461022b5780632e6272ea1461023e575b600080fd5b610216610211366004614caa565b6104ac565b005b610216610226366004614f11565b6106af565b610216610239366004614870565b6108b8565b61021661024c366004615068565b61097c565b61021661025f366004614caa565b610a9c565b610216610272366004614caa565b610b21565b610216610285366004614870565b610c32565b610216610298366004614caa565b610caf565b6102166102ab36600461480c565b610cea565b6102166102be366004614b05565b610f88565b6102166102d136600461480c565b611117565b3480156102e257600080fd5b506102eb6113bf565b6040516102f891906153ab565b60405180910390f35b61021661030f3660046148b5565b6113e3565b610216610322366004614caa565b6114e7565b610216610335366004614d85565b611581565b34801561034657600080fd5b506102eb6115fb565b61021661035d366004614c1a565b61161f565b610216610370366004614992565b611856565b610216610383366004614d04565b611c06565b610216610396366004614942565b611c83565b6102166103a9366004614caa565b611fda565b6102166103bc366004614caa565b61230a565b6102166103cf366004614df3565b612347565b6102166103e2366004614870565b612381565b6102166103f5366004614caa565b6123fe565b610216610408366004614b71565b612584565b61021661041b366004614870565b612b12565b61021661042e366004614caa565b612b8f565b610216610441366004614caa565b612d30565b610216610454366004614a5c565b612f5c565b610216610467366004614caa565b61305e565b34801561047857600080fd5b5061048c610487366004615156565b61309d565b6040516102f891906159ff565b6102166104a7366004614caa565b6130af565b6000856001600160a01b0316638da5cb5b6040518163ffffffff1660e01b815260040160206040518083038186803b1580156104e757600080fd5b505afa1580156104fb573d6000803e3d6000fd5b505050506040513d601f19601f8201168201806040525081019061051f91906147f0565b90506000816001600160a01b0316632495a5996040518163ffffffff1660e01b815260040160206040518083038186803b15801561055c57600080fd5b505afa158015610570573d6000803e3d6000fd5b505050506040513d601f19601f8201168201806040525081019061059491906147f0565b90506105a2818386896131db565b6040517f9aa5d4620000000000000000000000000000000000000000000000000000000081529094506001600160a01b03831690639aa5d462906105ef9087908990600090600401615a3e565b600060405180830381600087803b15801561060957600080fd5b505af115801561061d573d6000803e3d6000fd5b505050506106a683836001600160a01b0316634d778ad1876040518263ffffffff1660e01b815260040161065191906159ff565b60206040518083038186803b15801561066957600080fd5b505afa15801561067d573d6000803e3d6000fd5b505050506040513d601f19601f820116820180604052508101906106a1919061516e565b613206565b50505050505050565b336106bd60208901896147d4565b6001600160a01b031614806106e65750306106db60208901896147d4565b6001600160a01b0316145b61070b5760405162461bcd60e51b81526004016107029061582a565b60405180910390fd5b60005b8a518110156107705760008b828151811061072557fe5b602002602001015160600151905061073c8161321e565b156107675761074a81613269565b8c838151811061075657fe5b602002602001015160600181815250505b5060010161070e565b50606061077b6115fb565b6001600160a01b031663945bcec9858e8e8e8e8e8e8e8e6040518a63ffffffff1660e01b81526004016107b5989796959493929190615721565b6000604051808303818588803b1580156107ce57600080fd5b505af11580156107e2573d6000803e3d6000fd5b50505050506040513d6000823e601f3d908101601f1916820160405261080b91908101906149cc565b905060005b828110156108a95761083684848381811061082757fe5b9050604002016020013561321e565b6108525760405162461bcd60e51b81526004016107029061593d565b6108a184848381811061086157fe5b9050604002016020013561089c8487878681811061087b57fe5b905060400201600001358151811061088f57fe5b6020026020010151613294565b6132a0565b600101610810565b50505050505050505050505050565b6109767f00000000000000000000000000000000000000000000000000000000000000007f00000000000000000000000000000000000000000000000000000000000000006001600160a01b03166319d152fa6040518163ffffffff1660e01b815260040160206040518083038186803b15801561093557600080fd5b505afa158015610949573d6000803e3d6000fd5b505050506040513d601f19601f8201168201806040525081019061096d91906147f0565b868686866132b3565b50505050565b3361098a60208701876147d4565b6001600160a01b031614806109b35750306109a860208701876147d4565b6001600160a01b0316145b6109cf5760405162461bcd60e51b81526004016107029061582a565b6109dc866080015161321e565b156109f4576109ee8660800151613269565b60808701525b60006109fe6115fb565b6001600160a01b03166352bbbe2984898989896040518663ffffffff1660e01b8152600401610a309493929190615974565b6020604051808303818588803b158015610a4957600080fd5b505af1158015610a5d573d6000803e3d6000fd5b50505050506040513d601f19601f82011682018060405250810190610a82919061516e565b9050610a8d8261321e565b156106a6576106a682826132a0565b610b1a85866001600160a01b0316636f307dc36040518163ffffffff1660e01b815260040160206040518083038186803b158015610ad957600080fd5b505afa158015610aed573d6000803e3d6000fd5b505050506040513d601f19601f82011682018060405250810190610b1191906147f0565b868686866135d7565b5050505050565b6000856001600160a01b031663fc0c546a6040518163ffffffff1660e01b815260040160206040518083038186803b158015610b5c57600080fd5b505afa158015610b70573d6000803e3d6000fd5b505050506040513d601f19601f82011682018060405250810190610b9491906147f0565b9050610ba2818785886131db565b92506000866001600160a01b0316636e553f6585876040518363ffffffff1660e01b8152600401610bd4929190615a08565b602060405180830381600087803b158015610bee57600080fd5b505af1158015610c02573d6000803e3d6000fd5b505050506040513d601f19601f82011682018060405250810190610c26919061516e565b90506106a68382613206565b6109767f00000000000000000000000000000000000000000000000000000000000000007f00000000000000000000000000000000000000000000000000000000000000006001600160a01b0316634b3df2006040518163ffffffff1660e01b815260040160206040518083038186803b158015610ad957600080fd5b6000856001600160a01b03166338d52e0f6040518163ffffffff1660e01b815260040160206040518083038186803b158015610b5c57600080fd5b836001600160a01b03167f00000000000000000000000000000000000000000000000000000000000000006001600160a01b0316631bb5e2dc856040518263ffffffff1660e01b8152600401610d4091906159ff565b60206040518083038186803b158015610d5857600080fd5b505afa158015610d6c573d6000803e3d6000fd5b505050506040513d601f19601f82011682018060405250810190610d9091906147f0565b6001600160a01b031614610db65760405162461bcd60e51b815260040161070290615861565b610dbf8261321e565b15610dd057610dcd82613269565b91505b6001600160a01b0386163014610e13576001600160a01b0386163314610e085760405162461bcd60e51b81526004016107029061582a565b610e138685846137f6565b6040517f095ea7b30000000000000000000000000000000000000000000000000000000081526001600160a01b0385169063095ea7b390610e7a907f00000000000000000000000000000000000000000000000000000000000000009086906004016154fd565b602060405180830381600087803b158015610e9457600080fd5b505af1158015610ea8573d6000803e3d6000fd5b505050506040513d601f19601f82011682018060405250810190610ecc9190614b55565b506040517f8dbdbe6d0000000000000000000000000000000000000000000000000000000081526001600160a01b037f00000000000000000000000000000000000000000000000000000000000000001690638dbdbe6d90610f3690869086908a90600401615a5d565b600060405180830381600087803b158015610f5057600080fd5b505af1158015610f64573d6000803e3d6000fd5b50505050610f718161321e565b15610f8057610f8081836132a0565b505050505050565b60005b8251811015611112577f00000000000000000000000000000000000000000000000000000000000000006001600160a01b0316636352211e848381518110610fcf57fe5b60200260200101516040518263ffffffff1660e01b8152600401610ff391906159ff565b60206040518083038186803b15801561100b57600080fd5b505afa15801561101f573d6000803e3d6000fd5b505050506040513d601f19601f8201168201806040525081019061104391906147f0565b6001600160a01b0316336001600160a01b0316146110735760405162461bcd60e51b815260040161070290615898565b7f00000000000000000000000000000000000000000000000000000000000000006001600160a01b03166318fccc768483815181106110ae57fe5b6020026020010151846040518363ffffffff1660e01b81526004016110d4929190615a08565b600060405180830381600087803b1580156110ee57600080fd5b505af1158015611102573d6000803e3d6000fd5b505060019092019150610f8b9050565b505050565b6111208261321e565b156111315761112e82613269565b91505b836001600160a01b03167f00000000000000000000000000000000000000000000000000000000000000006001600160a01b0316636e7d4019856040518263ffffffff1660e01b815260040161118791906159ff565b60206040518083038186803b15801561119f57600080fd5b505afa1580156111b3573d6000803e3d6000fd5b505050506040513d601f19601f820116820180604052508101906111d791906147f0565b6001600160a01b0316146111fd5760405162461bcd60e51b815260040161070290615861565b6001600160a01b0386163014611240576001600160a01b03861633146112355760405162461bcd60e51b81526004016107029061582a565b6112408685846137f6565b6040517f095ea7b30000000000000000000000000000000000000000000000000000000081526001600160a01b0385169063095ea7b3906112a7907f00000000000000000000000000000000000000000000000000000000000000009086906004016154fd565b602060405180830381600087803b1580156112c157600080fd5b505af11580156112d5573d6000803e3d6000fd5b505050506040513d601f19601f820116820180604052508101906112f99190614b55565b506040517f6705fcf30000000000000000000000000000000000000000000000000000000081526001600160a01b037f00000000000000000000000000000000000000000000000000000000000000001690636705fcf39061136390889087908790600401615516565b602060405180830381600087803b15801561137d57600080fd5b505af1158015611391573d6000803e3d6000fd5b505050506040513d601f19601f820116820180604052508101906113b5919061516e565b50610f718161321e565b7f000000000000000000000000000000000000000000000000000000000000000090565b6001600160a01b0384163014806113f8575082155b6114145760405162461bcd60e51b8152600401610702906158cf565b606063fa6e671d60e01b338686604051602401611433939291906153bf565b60408051601f19818403018152918152602080830180517bffffffffffffffffffffffffffffffffffffffffffffffffffffffff167fffffffff0000000000000000000000000000000000000000000000000000000090951694909417909352516114a2928691869101615378565b60408051601f198184030181529190529050610f806001600160a01b037f00000000000000000000000000000000000000000000000000000000000000001682613892565b6114f285838661390c565b91506000856001600160a01b031662f714ce84866040518363ffffffff1660e01b8152600401611523929190615a08565b602060405180830381600087803b15801561153d57600080fd5b505af1158015611551573d6000803e3d6000fd5b505050506040513d601f19601f82011682018060405250810190611575919061516e565b9050610f808282613206565b866001600160a01b031663d505accf876115996115fb565b88888888886040518863ffffffff1660e01b81526004016115c097969594939291906154a0565b600060405180830381600087803b1580156115da57600080fd5b505af11580156115ee573d6000803e3d6000fd5b5050505050505050505050565b7f000000000000000000000000000000000000000000000000000000000000000090565b6001600160a01b03851633148061163e57506001600160a01b03851630145b61165a5760405162461bcd60e51b81526004016107029061582a565b60006116658861395c565b905060006116728361321e565b61167d576000611712565b6040517f70a082310000000000000000000000000000000000000000000000000000000081526001600160a01b038316906370a08231906116c29089906004016153ab565b60206040518083038186803b1580156116da57600080fd5b505afa1580156116ee573d6000803e3d6000fd5b505050506040513d601f19601f82011682018060405250810190611712919061516e565b9050611722888660400151613962565b604086015261172f6115fb565b6001600160a01b031663b95cac28858b8a8a8a6040518663ffffffff1660e01b8152600401611761949392919061567b565b6000604051808303818588803b15801561177a57600080fd5b505af115801561178e573d6000803e3d6000fd5b505050505061179c8361321e565b1561184b576040517f70a082310000000000000000000000000000000000000000000000000000000081526000906001600160a01b038416906370a08231906117e9908a906004016153ab565b60206040518083038186803b15801561180157600080fd5b505afa158015611815573d6000803e3d6000fd5b505050506040513d601f19601f82011682018060405250810190611839919061516e565b90506118498461089c83856139e9565b505b505050505050505050565b61185f8261321e565b156118705761186d82613269565b91505b6040517f6352211e0000000000000000000000000000000000000000000000000000000081526001600160a01b037f00000000000000000000000000000000000000000000000000000000000000001690636352211e906118d59086906004016159ff565b60206040518083038186803b1580156118ed57600080fd5b505afa158015611901573d6000803e3d6000fd5b505050506040513d601f19601f8201168201806040525081019061192591906147f0565b6001600160a01b0316336001600160a01b0316146119555760405162461bcd60e51b815260040161070290615898565b61195d614391565b6040517fe48dc1350000000000000000000000000000000000000000000000000000000081526001600160a01b037f0000000000000000000000000000000000000000000000000000000000000000169063e48dc135906119c29087906004016159ff565b60c06040518083038186803b1580156119da57600080fd5b505afa1580156119ee573d6000803e3d6000fd5b505050506040513d601f19601f82011682018060405250810190611a12919061500d565b905060007f00000000000000000000000000000000000000000000000000000000000000006001600160a01b0316636e7d401983608001516040518263ffffffff1660e01b8152600401611a6691906159ff565b60206040518083038186803b158015611a7e57600080fd5b505afa158015611a92573d6000803e3d6000fd5b505050506040513d601f19601f82011682018060405250810190611ab691906147f0565b6040517fd1abb9070000000000000000000000000000000000000000000000000000000081529091506001600160a01b037f0000000000000000000000000000000000000000000000000000000000000000169063d1abb90790611b2290879089908b90600401615a5d565b600060405180830381600087803b158015611b3c57600080fd5b505af1158015611b50573d6000803e3d6000fd5b50506040517fa9059cbb0000000000000000000000000000000000000000000000000000000081526001600160a01b038416925063a9059cbb9150611b9b90899088906004016154fd565b602060405180830381600087803b158015611bb557600080fd5b505af1158015611bc9573d6000803e3d6000fd5b505050506040513d601f19601f82011682018060405250810190611bed9190614b55565b50611bf78361321e565b15610f8057610f8083856132a0565b876001600160a01b0316638fcbaf0c88611c1e6115fb565b8989898989896040518963ffffffff1660e01b8152600401611c47989796959493929190615457565b600060405180830381600087803b158015611c6157600080fd5b505af1158015611c75573d6000803e3d6000fd5b505050505050505050505050565b611c8c8261321e565b15611c9d57611c9a82613269565b91505b611ca5614391565b6040517fe48dc1350000000000000000000000000000000000000000000000000000000081526001600160a01b037f0000000000000000000000000000000000000000000000000000000000000000169063e48dc13590611d0a9087906004016159ff565b60c06040518083038186803b158015611d2257600080fd5b505afa158015611d36573d6000803e3d6000fd5b505050506040513d601f19601f82011682018060405250810190611d5a919061500d565b9050846001600160a01b03167f00000000000000000000000000000000000000000000000000000000000000006001600160a01b0316636e7d401983608001516040518263ffffffff1660e01b8152600401611db691906159ff565b60206040518083038186803b158015611dce57600080fd5b505afa158015611de2573d6000803e3d6000fd5b505050506040513d601f19601f82011682018060405250810190611e0691906147f0565b6001600160a01b031614611e2c5760405162461bcd60e51b815260040161070290615861565b6001600160a01b0386163014611e6f576001600160a01b0386163314611e645760405162461bcd60e51b81526004016107029061582a565b611e6f8686856137f6565b6040517f095ea7b30000000000000000000000000000000000000000000000000000000081526001600160a01b0386169063095ea7b390611ed6907f00000000000000000000000000000000000000000000000000000000000000009087906004016154fd565b602060405180830381600087803b158015611ef057600080fd5b505af1158015611f04573d6000803e3d6000fd5b505050506040513d601f19601f82011682018060405250810190611f289190614b55565b506040517fe2bbb1580000000000000000000000000000000000000000000000000000000081526001600160a01b037f0000000000000000000000000000000000000000000000000000000000000000169063e2bbb15890611f90908690889060040161539d565b600060405180830381600087803b158015611faa57600080fd5b505af1158015611fbe573d6000803e3d6000fd5b50505050611fcb8261321e565b15610f8057610f8082846132a0565b611fe38261321e565b15611ff457611ff182613269565b91505b6000856001600160a01b0316631f1fcd516040518163ffffffff1660e01b815260040160206040518083038186803b15801561202f57600080fd5b505afa158015612043573d6000803e3d6000fd5b505050506040513d601f19601f8201168201806040525081019061206791906147f0565b90506001600160a01b03851630146120ac576001600160a01b03851633146120a15760405162461bcd60e51b81526004016107029061582a565b6120ac8582856137f6565b6040517f095ea7b30000000000000000000000000000000000000000000000000000000081526001600160a01b0382169063095ea7b3906120f390899087906004016154fd565b602060405180830381600087803b15801561210d57600080fd5b505af1158015612121573d6000803e3d6000fd5b505050506040513d601f19601f820116820180604052508101906121459190614b55565b506040517fb6b55f250000000000000000000000000000000000000000000000000000000081526001600160a01b0387169063b6b55f259061218b9086906004016159ff565b600060405180830381600087803b1580156121a557600080fd5b505af11580156121b9573d6000803e3d6000fd5b50506040517f70a08231000000000000000000000000000000000000000000000000000000008152600092506001600160a01b03891691506370a08231906122059030906004016153ab565b60206040518083038186803b15801561221d57600080fd5b505afa158015612231573d6000803e3d6000fd5b505050506040513d601f19601f82011682018060405250810190612255919061516e565b6040517fa9059cbb0000000000000000000000000000000000000000000000000000000081529091506001600160a01b0388169063a9059cbb9061229f90889085906004016154fd565b602060405180830381600087803b1580156122b957600080fd5b505af11580156122cd573d6000803e3d6000fd5b505050506040513d601f19601f820116820180604052508101906122f19190614b55565b506122fb8361321e565b156106a6576106a683826132a0565b610b1a85866001600160a01b0316636f307dc36040518163ffffffff1660e01b815260040160206040518083038186803b15801561093557600080fd5b6123508161321e565b156123615761235e81613269565b90505b61237d61236c6115fb565b6001600160a01b03841690836139ff565b5050565b6109767f00000000000000000000000000000000000000000000000000000000000000007f00000000000000000000000000000000000000000000000000000000000000006001600160a01b03166319d152fa6040518163ffffffff1660e01b815260040160206040518083038186803b158015610ad957600080fd5b61240985838661390c565b6040517f2e1a7d4d0000000000000000000000000000000000000000000000000000000081529092506001600160a01b03861690632e1a7d4d906124519085906004016159ff565b600060405180830381600087803b15801561246b57600080fd5b505af115801561247f573d6000803e3d6000fd5b505050506000856001600160a01b031663fc0c546a6040518163ffffffff1660e01b815260040160206040518083038186803b1580156124be57600080fd5b505afa1580156124d2573d6000803e3d6000fd5b505050506040513d601f19601f820116820180604052508101906124f691906147f0565b90506000816001600160a01b03166370a08231306040518263ffffffff1660e01b815260040161252691906153ab565b60206040518083038186803b15801561253e57600080fd5b505afa158015612552573d6000803e3d6000fd5b505050506040513d601f19601f82011682018060405250810190612576919061516e565b90506106a682868386613b4b565b6001600160a01b0385163314806125a357506001600160a01b03851630145b6125bf5760405162461bcd60e51b81526004016107029061582a565b60608167ffffffffffffffff811180156125d857600080fd5b50604051908082528060200260200182016040528015612602578160200160208202803683370190505b50905060608267ffffffffffffffff8111801561261e57600080fd5b50604051908082528060200260200182016040528015612648578160200160208202803683370190505b50905060005b838110156127b85761266585858381811061082757fe5b6126815760405162461bcd60e51b81526004016107029061593d565b855160009086868481811061269257fe5b90506040020160000135815181106126a657fe5b602002602001015190508660600151156126f4576126c381613b79565b8483815181106126cf57fe5b60200260200101906001600160a01b031690816001600160a01b0316815250506127af565b6126fd81613b7c565b61278a5761270a81613b79565b6001600160a01b03166370a08231896040518263ffffffff1660e01b815260040161273591906153ab565b60206040518083038186803b15801561274d57600080fd5b505afa158015612761573d6000803e3d6000fd5b505050506040513d601f19601f82011682018060405250810190612785919061516e565b612796565b876001600160a01b0316315b8383815181106127a257fe5b6020026020010181815250505b5060010161264e565b5084606001511561284f576127cb6115fb565b6001600160a01b0316630f5a6efa87846040518363ffffffff1660e01b81526004016127f89291906153e3565b60006040518083038186803b15801561281057600080fd5b505afa158015612824573d6000803e3d6000fd5b505050506040513d6000823e601f3d908101601f1916820160405261284c9190810190614ad2565b90505b61285d888660400151613b89565b604086015261286a6115fb565b6001600160a01b0316638bdb39138a8989896040518563ffffffff1660e01b815260040161289b949392919061567b565b600060405180830381600087803b1580156128b557600080fd5b505af11580156128c9573d6000803e3d6000fd5b50606092508591505067ffffffffffffffff811180156128e857600080fd5b50604051908082528060200260200182016040528015612912578160200160208202803683370190505b5090508560600151156129af576129276115fb565b6001600160a01b0316630f5a6efa88856040518363ffffffff1660e01b81526004016129549291906153e3565b60006040518083038186803b15801561296c57600080fd5b505afa158015612980573d6000803e3d6000fd5b505050506040513d6000823e601f3d908101601f191682016040526129a89190810190614ad2565b9050612aad565b60005b84811015612aab5786516000908787848181106129cb57fe5b90506040020160000135815181106129df57fe5b602002602001015190506129f281613b7c565b612a7f576129ff81613b79565b6001600160a01b03166370a082318a6040518263ffffffff1660e01b8152600401612a2a91906153ab565b60206040518083038186803b158015612a4257600080fd5b505afa158015612a56573d6000803e3d6000fd5b505050506040513d601f19601f82011682018060405250810190612a7a919061516e565b612a8b565b886001600160a01b0316315b838381518110612a9757fe5b6020908102919091010152506001016129b2565b505b60005b848110156115ee57612b0a868683818110612ac757fe5b9050604002016020013561089c858481518110612ae057fe5b6020026020010151858581518110612af457fe5b60200260200101516139e990919063ffffffff16565b600101612ab0565b6109767f00000000000000000000000000000000000000000000000000000000000000007f00000000000000000000000000000000000000000000000000000000000000006001600160a01b0316634b3df2006040518163ffffffff1660e01b815260040160206040518083038186803b15801561093557600080fd5b6000856001600160a01b031663fc0c546a6040518163ffffffff1660e01b815260040160206040518083038186803b158015612bca57600080fd5b505afa158015612bde573d6000803e3d6000fd5b505050506040513d601f19601f82011682018060405250810190612c0291906147f0565b9050612c10818785886131db565b6040517fb6b55f250000000000000000000000000000000000000000000000000000000081529093506001600160a01b0387169063b6b55f2590612c589086906004016159ff565b600060405180830381600087803b158015612c7257600080fd5b505af1158015612c86573d6000803e3d6000fd5b50506040517f70a08231000000000000000000000000000000000000000000000000000000008152600092506001600160a01b03891691506370a0823190612cd29030906004016153ab565b60206040518083038186803b158015612cea57600080fd5b505afa158015612cfe573d6000803e3d6000fd5b505050506040513d601f19601f82011682018060405250810190612d22919061516e565b90506106a687868386613b4b565b612d398261321e565b15612d4a57612d4782613269565b91505b6001600160a01b0384163014612d8d576001600160a01b0384163314612d825760405162461bcd60e51b81526004016107029061582a565b612d8d8486846137f6565b6000856001600160a01b0316631f1fcd516040518163ffffffff1660e01b815260040160206040518083038186803b158015612dc857600080fd5b505afa158015612ddc573d6000803e3d6000fd5b505050506040513d601f19601f82011682018060405250810190612e0091906147f0565b6040517f2e1a7d4d0000000000000000000000000000000000000000000000000000000081529091506001600160a01b03871690632e1a7d4d90612e489086906004016159ff565b600060405180830381600087803b158015612e6257600080fd5b505af1158015612e76573d6000803e3d6000fd5b50506040517f70a08231000000000000000000000000000000000000000000000000000000008152600092506001600160a01b03841691506370a0823190612ec29030906004016153ab565b60206040518083038186803b158015612eda57600080fd5b505afa158015612eee573d6000803e3d6000fd5b505050506040513d601f19601f82011682018060405250810190612f12919061516e565b6040517fa9059cbb0000000000000000000000000000000000000000000000000000000081529091506001600160a01b0383169063a9059cbb9061229f90889085906004016154fd565b60005b82811015612ff05733848483818110612f7457fe5b905060a002016060016020810190612f8c91906147d4565b6001600160a01b03161480612fcc575030848483818110612fa957fe5b905060a002016060016020810190612fc191906147d4565b6001600160a01b0316145b612fe85760405162461bcd60e51b81526004016107029061582a565b600101612f5f565b50612ff96115fb565b6001600160a01b0316630e8e3e848285856040518463ffffffff1660e01b8152600401613027929190615537565b6000604051808303818588803b15801561304057600080fd5b505af1158015613054573d6000803e3d6000fd5b5050505050505050565b61306985838661390c565b91506000856001600160a01b031663ba0876528486306040518463ffffffff1660e01b815260040161152393929190615a1f565b60006130a882613bff565b9392505050565b6130ba85838661390c565b91506000856001600160a01b0316638da5cb5b6040518163ffffffff1660e01b815260040160206040518083038186803b1580156130f757600080fd5b505afa15801561310b573d6000803e3d6000fd5b505050506040513d601f19601f8201168201806040525081019061312f91906147f0565b6040517f05fe138b0000000000000000000000000000000000000000000000000000000081529091506001600160a01b038216906305fe138b906131799086908890600401615a08565b600060405180830381600087803b15801561319357600080fd5b505af11580156131a7573d6000803e3d6000fd5b50505050610f8082826001600160a01b0316635427c938866040518263ffffffff1660e01b815260040161065191906159ff565b60006131e885848461390c565b90506131fe6001600160a01b03861685836139ff565b949350505050565b61320f8261321e565b1561237d5761237d82826132a0565b7fba100000000000000000000000000000000000000000000000000000000000007ffff00000000000000000000000000000000000000000000000000000000000008216145b919050565b600080600061327784613bff565b9150915061328484613c16565b156130a857600082559392505050565b60ff81901d9081180390565b60006132ab83613c5d565b919091555050565b6132bc8261321e565b156132cd576132ca82613269565b91505b6001600160a01b0384163014613310576001600160a01b03841633146133055760405162461bcd60e51b81526004016107029061582a565b6133108486846137f6565b6040517f70a082310000000000000000000000000000000000000000000000000000000081526000906001600160a01b038816906370a08231906133589030906004016153ab565b60206040518083038186803b15801561337057600080fd5b505afa158015613384573d6000803e3d6000fd5b505050506040513d601f19601f820116820180604052508101906133a8919061516e565b6040517f095ea7b30000000000000000000000000000000000000000000000000000000081529091506001600160a01b0387169063095ea7b3906133f2908a9087906004016154fd565b602060405180830381600087803b15801561340c57600080fd5b505af1158015613420573d6000803e3d6000fd5b505050506040513d601f19601f820116820180604052508101906134449190614b55565b506040517fa59f3e0c0000000000000000000000000000000000000000000000000000000081526001600160a01b0388169063a59f3e0c9061348a9086906004016159ff565b600060405180830381600087803b1580156134a457600080fd5b505af11580156134b8573d6000803e3d6000fd5b50505050600081886001600160a01b03166370a08231306040518263ffffffff1660e01b81526004016134eb91906153ab565b60206040518083038186803b15801561350357600080fd5b505afa158015613517573d6000803e3d6000fd5b505050506040513d601f19601f8201168201806040525081019061353b919061516e565b039050876001600160a01b031663a9059cbb86836040518363ffffffff1660e01b815260040161356c9291906154fd565b602060405180830381600087803b15801561358657600080fd5b505af115801561359a573d6000803e3d6000fd5b505050506040513d601f19601f820116820180604052508101906135be9190614b55565b506135c88361321e565b156130545761305483826132a0565b6135e08261321e565b156135f1576135ee82613269565b91505b6001600160a01b0384163014613634576001600160a01b03841633146136295760405162461bcd60e51b81526004016107029061582a565b6136348487846137f6565b6040517f70a082310000000000000000000000000000000000000000000000000000000081526000906001600160a01b038716906370a082319061367c9030906004016153ab565b60206040518083038186803b15801561369457600080fd5b505afa1580156136a8573d6000803e3d6000fd5b505050506040513d601f19601f820116820180604052508101906136cc919061516e565b6040517f67dfd4c90000000000000000000000000000000000000000000000000000000081529091506001600160a01b038816906367dfd4c9906137149086906004016159ff565b600060405180830381600087803b15801561372e57600080fd5b505af1158015613742573d6000803e3d6000fd5b50505050600081876001600160a01b03166370a08231306040518263ffffffff1660e01b815260040161377591906153ab565b60206040518083038186803b15801561378d57600080fd5b505afa1580156137a1573d6000803e3d6000fd5b505050506040513d601f19601f820116820180604052508101906137c5919061516e565b039050866001600160a01b031663a9059cbb86836040518363ffffffff1660e01b815260040161356c9291906154fd565b8061380057611112565b60408051600180825281830190925260609160208083019080368337019050509050828160008151811061383057fe5b6001600160a01b039290921660209283029190910190910152604080516001808252818301909252606091816020016020820280368337019050509050828160008151811061387b57fe5b602002602001018181525050610b1a858383613cbb565b606060006060846001600160a01b0316846040516138b0919061535c565b6000604051808303816000865af19150503d80600081146138ed576040519150601f19603f3d011682016040523d82523d6000602084013e6138f2565b606091505b50915091506139018282613df5565b925050505b92915050565b600061391783613e1f565b90506001600160a01b03821630146130a8576001600160a01b03821633146139515760405162461bcd60e51b81526004016107029061582a565b6130a88285836137f6565b60601c90565b6060600083600381111561397257fe5b14156139885761398182613e3d565b9050613906565b600183600381111561399657fe5b14806139ad575060028360038111156139ab57fe5b145b806139c3575060038360038111156139c157fe5b145b156139d15761398182613e3d565b60405162461bcd60e51b815260040161070290615906565b60006139f9838311156001613e7a565b50900390565b8015801590613aa357506040517fdd62ed3e0000000000000000000000000000000000000000000000000000000081526001600160a01b0384169063dd62ed3e90613a50903090869060040161543d565b60206040518083038186803b158015613a6857600080fd5b505afa158015613a7c573d6000803e3d6000fd5b505050506040513d601f19601f82011682018060405250810190613aa0919061516e565b15155b15613b2c57613b2c8363095ea7b360e01b846000604051602401613ac89291906154e1565b60408051601f198184030181529190526020810180517bffffffffffffffffffffffffffffffffffffffffffffffffffffffff167fffffffff0000000000000000000000000000000000000000000000000000000090931692909217909152613e88565b6111128363095ea7b360e01b8484604051602401613ac89291906154fd565b6001600160a01b0383163014613b6f57613b6f6001600160a01b0385168484613f28565b6109768183613206565b90565b6001600160a01b03161590565b60606000836003811115613b9957fe5b1415613ba85761398182613f47565b6001836003811115613bb657fe5b1415613bc55761398182613f90565b6002836003811115613bd357fe5b1415613be25761398182613fd6565b6003836003811115613bf057fe5b14156139d15761398182614002565b600080613c0b83613c5d565b915081549050915091565b7fffff000000000000000000000000000000000000000000000000000000000000167fba100000000000000000000000000000000000000000000000000000000000001490565b60006001613c6a83614035565b7f0000000000000000000000000000000000000000000000000000000000000000604051602001613c9c92919061539d565b60408051808303601f1901815291905280516020909101200392915050565b6060825167ffffffffffffffff81118015613cd557600080fd5b50604051908082528060200260200182016040528015613d0f57816020015b613cfc6143c7565b815260200190600190039081613cf45790505b50905060005b8351811015613da7576040805160a081019091528060038152602001858381518110613d3d57fe5b60200260200101516001600160a01b03168152602001848381518110613d5f57fe5b60200260200101518152602001866001600160a01b03168152602001306001600160a01b0316815250828281518110613d9457fe5b6020908102919091010152600101613d15565b50613db06115fb565b6001600160a01b0316630e8e3e84826040518263ffffffff1660e01b8152600401613ddb91906155e5565b600060405180830381600087803b15801561304057600080fd5b60608215613e04575080613906565b815115613e145781518083602001fd5b6139066101ae614058565b6000613e2a8261321e565b613e345781613906565b61390682613269565b60606000613e4a83614085565b90506001816003811115613e5a57fe5b1415613e7157613e698361409b565b915050613264565b82915050613264565b8161237d5761237d81614058565b60006060836001600160a01b031683604051613ea4919061535c565b6000604051808303816000865af19150503d8060008114613ee1576040519150601f19603f3d011682016040523d82523d6000602084013e613ee6565b606091505b50915091506000821415613efe573d6000803e3d6000fd5b610976815160001480613f20575081806020019051810190613f209190614b55565b6101a2613e7a565b6111128363a9059cbb60e01b8484604051602401613ac89291906154fd565b60606000613f54836140ed565b90506000816002811115613f6457fe5b1415613f7357613e6983614103565b6001816002811115613f8157fe5b1415613e7157613e6983614166565b60606000613f9d836140ed565b6002811115613fa857fe5b905060ff8116613fbc57613e6983826141b9565b60015b60ff168160ff161415613e7157613e69838261421b565b60606000613fe3836140ed565b6002811115613fee57fe5b905060ff8116613e7157613e6983826141b9565b6060600061400f836140ed565b600281111561401a57fe5b905060ff811661402e57613e6983826141b9565b6002613fbf565b7dffffffffffffffffffffffffffffffffffffffffffffffffffffffffffff1690565b614082817f42414c0000000000000000000000000000000000000000000000000000000000614276565b50565b6000818060200190518101906139069190614e9d565b60608060006140a9846142d7565b915091506140b6826142fa565b6140c057836131fe565b600182826040516020016140d6939291906156ef565b604051602081830303815290604052949350505050565b6000818060200190518101906139069190614e1e565b606060008061411184614364565b9150915061411e8261321e565b1561415c5761412c82613269565b915060008282604051602001614144939291906156ce565b60405160208183030381529060405292505050613264565b8392505050613264565b606060006141738361437b565b905061417e8161321e565b15613e715761418c81613269565b90506001816040516020016141a29291906156b7565b604051602081830303815290604052915050613264565b60606000806141c785614364565b915091506141d48261321e565b15614211576141e282613269565b91508382826040516020016141f993929190615a8f565b60405160208183030381529060405292505050613906565b8492505050613906565b606060006142288461437b565b90506142338161321e565b1561426d5761424181613269565b90508281604051602001614256929190615a7c565b604051602081830303815290604052915050613906565b83915050613906565b62461bcd60e51b600090815260206004526007602452600a808404818106603090810160081b958390069590950190829004918206850160101b01602363ffffff0060e086901c160160181b0190930160c81b60445260e882901c90606490fd5b60606000828060200190518101906142ef9190614eb9565b909590945092505050565b600080805b835181101561435d57600084828151811061431657fe5b602002602001015190506143298161321e565b156143545761433781613269565b85838151811061434357fe5b602002602001018181525050600192505b506001016142ff565b5092915050565b600080828060200190518101906142ef9190614e67565b6000818060200190518101906130a89190614e3a565b6040518060c001604052806000815260200160008152602001600081526020016000815260200160008152602001600081525090565b6040805160a081019091528060008152600060208201819052604082018190526060820181905260809091015290565b803561390681615b48565b60008083601f840112614413578182fd5b50813567ffffffffffffffff81111561442a578182fd5b602083019150836020808302850101111561444457600080fd5b9250929050565b600082601f83011261445b578081fd5b813561446e61446982615ad1565b615aaa565b81815291506020808301908481018184028601820187101561448f57600080fd5b60005b848110156144b75781356144a581615b48565b84529282019290820190600101614492565b505050505092915050565b600082601f8301126144d2578081fd5b81356144e061446982615ad1565b818152915060208083019084810160005b848110156144b7578135870160a080601f19838c0301121561451257600080fd5b61451b81615aaa565b85830135815260408084013587830152606080850135828401526080915081850135818401525082840135925067ffffffffffffffff83111561455d57600080fd5b61456b8c888587010161468d565b908201528652505092820192908201906001016144f1565b60008083601f840112614594578182fd5b50813567ffffffffffffffff8111156145ab578182fd5b60208301915083602060408302850101111561444457600080fd5b600082601f8301126145d6578081fd5b81356145e461446982615ad1565b81815291506020808301908481018184028601820187101561460557600080fd5b60005b848110156144b757813584529282019290820190600101614608565b600082601f830112614634578081fd5b815161464261446982615ad1565b81815291506020808301908481018184028601820187101561466357600080fd5b60005b848110156144b757815184529282019290820190600101614666565b803561390681615b5d565b600082601f83011261469d578081fd5b813567ffffffffffffffff8111156146b3578182fd5b6146c66020601f19601f84011601615aaa565b91508082528360208285010111156146dd57600080fd5b8060208401602084013760009082016020015292915050565b80356002811061390657600080fd5b600060808284031215614716578081fd5b6147206080615aaa565b9050813567ffffffffffffffff8082111561473a57600080fd5b6147468583860161444b565b8352602084013591508082111561475c57600080fd5b614768858386016145c6565b6020840152604084013591508082111561478157600080fd5b5061478e8482850161468d565b6040830152506147a18360608401614682565b606082015292915050565b6000608082840312156147bd578081fd5b50919050565b803560ff8116811461390657600080fd5b6000602082840312156147e5578081fd5b81356130a881615b48565b600060208284031215614801578081fd5b81516130a881615b48565b60008060008060008060c08789031215614824578182fd5b863561482f81615b48565b9550602087013561483f81615b48565b9450604087013561484f81615b48565b959894975094956060810135955060808101359460a0909101359350915050565b60008060008060808587031215614885578182fd5b843561489081615b48565b935060208501356148a081615b48565b93969395505050506040820135916060013590565b600080600080606085870312156148ca578182fd5b84356148d581615b48565b935060208501356148e581615b5d565b9250604085013567ffffffffffffffff80821115614901578384fd5b818701915087601f830112614914578384fd5b813581811115614922578485fd5b886020828501011115614933578485fd5b95989497505060200194505050565b600080600080600060a08688031215614959578283fd5b853561496481615b48565b9450602086013561497481615b48565b94979496505050506040830135926060810135926080909101359150565b600080600080608085870312156149a7578182fd5b84356149b281615b48565b966020860135965060408601359560600135945092505050565b600060208083850312156149de578182fd5b825167ffffffffffffffff8111156149f4578283fd5b8301601f81018513614a04578283fd5b8051614a1261446982615ad1565b8181528381019083850185840285018601891015614a2e578687fd5b8694505b83851015614a50578051835260019490940193918501918501614a32565b50979650505050505050565b600080600060408486031215614a70578081fd5b833567ffffffffffffffff80821115614a87578283fd5b818601915086601f830112614a9a578283fd5b813581811115614aa8578384fd5b87602060a083028501011115614abc578384fd5b6020928301989097509590910135949350505050565b600060208284031215614ae3578081fd5b815167ffffffffffffffff811115614af9578182fd5b6131fe84828501614624565b60008060408385031215614b17578182fd5b823567ffffffffffffffff811115614b2d578283fd5b614b39858286016145c6565b9250506020830135614b4a81615b48565b809150509250929050565b600060208284031215614b66578081fd5b81516130a881615b5d565b600080600080600080600060c0888a031215614b8b578485fd5b873596506020880135614b9d81615b78565b95506040880135614bad81615b48565b94506060880135614bbd81615b48565b9350608088013567ffffffffffffffff80821115614bd9578283fd5b614be58b838c01614705565b945060a08a0135915080821115614bfa578283fd5b50614c078a828b01614583565b989b979a50959850939692959293505050565b600080600080600080600060e0888a031215614c34578081fd5b873596506020880135614c4681615b78565b95506040880135614c5681615b48565b94506060880135614c6681615b48565b9350608088013567ffffffffffffffff811115614c81578182fd5b614c8d8a828b01614705565b93505060a0880135915060c0880135905092959891949750929550565b600080600080600060a08688031215614cc1578283fd5b8535614ccc81615b48565b94506020860135614cdc81615b48565b93506040860135614cec81615b48565b94979396509394606081013594506080013592915050565b600080600080600080600080610100898b031215614d20578182fd5b8835614d2b81615b48565b97506020890135614d3b81615b48565b965060408901359550606089013594506080890135614d5981615b5d565b9350614d688a60a08b016147c3565b925060c0890135915060e089013590509295985092959890939650565b600080600080600080600060e0888a031215614d9f578081fd5b8735614daa81615b48565b96506020880135614dba81615b48565b95506040880135945060608801359350614dd78960808a016147c3565b925060a0880135915060c0880135905092959891949750929550565b60008060408385031215614e05578182fd5b8235614e1081615b48565b946020939093013593505050565b600060208284031215614e2f578081fd5b81516130a881615b6b565b60008060408385031215614e4c578182fd5b8251614e5781615b6b565b6020939093015192949293505050565b600080600060608486031215614e7b578081fd5b8351614e8681615b6b565b602085015160409095015190969495509392505050565b600060208284031215614eae578081fd5b81516130a881615b78565b600080600060608486031215614ecd578081fd5b8351614ed881615b78565b602085015190935067ffffffffffffffff811115614ef4578182fd5b614f0086828701614624565b925050604084015190509250925092565b60008060008060008060008060008060006101608c8e031215614f32578485fd5b614f3c8d8d6146f6565b9a5067ffffffffffffffff8060208e01351115614f57578586fd5b614f678e60208f01358f016144c2565b9a508060408e01351115614f79578586fd5b614f898e60408f01358f01614402565b909a509850614f9b8e60608f016147ac565b97508060e08e01351115614fad578586fd5b614fbd8e60e08f01358f01614402565b90975095506101008d013594506101208d013593506101408d0135811015614fe3578283fd5b50614ff58d6101408e01358e01614583565b81935080925050509295989b509295989b9093969950565b600060c0828403121561501e578081fd5b61502860c0615aaa565b825181526020830151602082015260408301516040820152606083015160608201526080830151608082015260a083015160a08201528091505092915050565b6000806000806000806101208789031215615081578384fd5b863567ffffffffffffffff80821115615098578586fd5b9088019060c0828b0312156150ab578586fd5b6150b560c0615aaa565b823581526150c68b602085016146f6565b602082015260408301356150d981615b48565b60408201526150eb8b606085016143f7565b60608201526080830135608082015260a08301358281111561510b578788fd5b6151178c82860161468d565b60a08301525080985050505061513088602089016147ac565b959895975050505060a08401359360c08101359360e08201359350610100909101359150565b600060208284031215615167578081fd5b5035919050565b60006020828403121561517f578081fd5b5051919050565b6001600160a01b03169052565b60008284526020808501945082825b858110156151d05781356151b581615b48565b6001600160a01b0316875295820195908201906001016151a2565b509495945050505050565b60008284526020808501945082825b858110156151d0578135875295820195908201906001016151ea565b6000815180845260208085019450808401835b838110156151d057815187529582019590820190600101615219565b15159052565b60008151808452615253816020860160208601615afe565b601f01601f19169290920160200192915050565b8051608080845281519084018190526000916020919082019060a0860190845b818110156152ac5783516001600160a01b031683529284019291840191600101615287565b5050828501519150858103838701526152c58183615206565b92505050604083015184820360408601526152e0828261523b565b91505060608301516152f56060860182615235565b509392505050565b803561530881615b48565b6001600160a01b03908116835260208201359061532482615b5d565b901515602084015260408201359061533b82615b48565b166040830152606081013561534f81615b5d565b8015156060840152505050565b6000825161536e818460208701615afe565b9190910192915050565b6000845161538a818460208901615afe565b8201838582379092019182525092915050565b918252602082015260400190565b6001600160a01b0391909116815260200190565b6001600160a01b039384168152919092166020820152901515604082015260600190565b6000604082016001600160a01b03808616845260206040818601528286518085526060870191508288019450855b8181101561542f578551851683529483019491830191600101615411565b509098975050505050505050565b6001600160a01b0392831681529116602082015260400190565b6001600160a01b039889168152969097166020870152604086019490945260608501929092521515608084015260ff1660a083015260c082015260e08101919091526101000190565b6001600160a01b0397881681529590961660208601526040850193909352606084019190915260ff16608083015260a082015260c081019190915260e00190565b6001600160a01b0392909216825260ff16602082015260400190565b6001600160a01b03929092168252602082015260400190565b6001600160a01b039390931683526020830191909152604082015260600190565b6020808252818101839052600090604080840186845b878110156155d857813561556081615b78565b61556981615b34565b83528185013561557881615b48565b6001600160a01b0316838601528184013584840152606061559b81840184615af1565b6155a782860182615186565b505060806155b781840184615af1565b6155c382860182615186565b505060a092830192919091019060010161554d565b5090979650505050505050565b602080825282518282018190526000919060409081850190868401855b8281101561566e578151805161561781615b34565b8552808701516001600160a01b031687860152858101518686015260608082015161564482880182615186565b50506080908101519061565986820183615186565b505060a0939093019290850190600101615602565b5091979650505050505050565b60008582526001600160a01b038086166020840152808516604084015250608060608301526156ad6080830184615267565b9695505050505050565b604081016156c484615b2a565b9281526020015290565b606081016156db85615b2a565b938152602081019290925260409091015290565b60006156fa85615b34565b848252606060208301526157116060830185615206565b9050826040830152949350505050565b60006101208083016157328c615b3e565b8b84526020808501929092528a5190819052610140808501928281028601909101918c8201855b828110156157d9578785037ffffffffffffffffffffffffffffffffffffffffffffffffffffffffffffffec00186528151805186528481015185870152604080820151908701526060808201519087015260809081015160a0918701829052906157c58188018361523b565b978601979650505090830190600101615759565b5050505083810360408501526157f0818a8c615193565b91505061580060608401886152fd565b82810360e08401526158138186886151db565b915050826101008301529998505050505050505050565b60208082526010908201527f496e636f72726563742073656e64657200000000000000000000000000000000604082015260600190565b60208082526017908201527f496e636f727265637420746f6b656e20666f7220706964000000000000000000604082015260600190565b60208082526019908201527f53656e646572206e6f74206f776e6572206f662072656c696300000000000000604082015260600190565b6020808252601f908201527f52656c617965722063616e206f6e6c7920617070726f766520697473656c6600604082015260600190565b60208082526013908201527f554e48414e444c45445f504f4f4c5f4b494e4400000000000000000000000000604082015260600190565b60208082526019908201527f696e76616c696420636861696e6564207265666572656e636500000000000000604082015260600190565b600060e08252855160e0830152602086015161598f81615b3e565b61010083015260408601516001600160a01b03908116610120840152606087015116610140830152608086015161016083015260a086015160c06101808401526159dd6101a084018261523b565b9150506159ed60208301866152fd565b60a082019390935260c0015292915050565b90815260200190565b9182526001600160a01b0316602082015260400190565b9283526001600160a01b03918216602084015216604082015260600190565b9283526001600160a01b03919091166020830152604082015260600190565b92835260208301919091526001600160a01b0316604082015260600190565b60ff929092168252602082015260400190565b60ff9390931683526020830191909152604082015260600190565b60405181810167ffffffffffffffff81118282101715615ac957600080fd5b604052919050565b600067ffffffffffffffff821115615ae7578081fd5b5060209081020190565b600082356130a881615b48565b60005b83811015615b19578181015183820152602001615b01565b838111156109765750506000910152565b6003811061408257fe5b6004811061408257fe5b6002811061408257fe5b6001600160a01b038116811461408257600080fd5b801515811461408257600080fd5b6003811061408257600080fd5b6004811061408257600080fdfea2646970667358221220e0ff0d7058fd0bb3ce53f232b824924292757610fae06823eaae6530394abc3564736f6c6343000701003360c060405234801561001057600080fd5b5060405161078738038061078783398101604081905261002f91610052565b60016000556001600160601b0319606092831b8116608052911b1660a0526100a3565b60008060408385031215610064578182fd5b825161006f8161008b565b60208401519092506100808161008b565b809150509250929050565b6001600160a01b03811681146100a057600080fd5b50565b60805160601c60a05160601c6106b36100d46000398060fc528061020f5250806058528061012052506106b36000f3fe6080604052600436106100385760003560e01c80637678922e146100885780638d928af8146100b3578063ac9650d8146100c857610083565b36610083576100813373ffffffffffffffffffffffffffffffffffffffff7f000000000000000000000000000000000000000000000000000000000000000016146102066100e8565b005b600080fd5b34801561009457600080fd5b5061009d6100fa565b6040516100aa919061050e565b60405180910390f35b3480156100bf57600080fd5b5061009d61011e565b6100db6100d6366004610480565b610142565b6040516100aa919061052f565b816100f6576100f68161026e565b5050565b7f000000000000000000000000000000000000000000000000000000000000000090565b7f000000000000000000000000000000000000000000000000000000000000000090565b606061014c61029b565b8167ffffffffffffffff8111801561016357600080fd5b5060405190808252806020026020018201604052801561019757816020015b60608152602001906001900390816101825790505b50905060005b82811015610257576102388484838181106101b457fe5b90506020028101906101c691906105e3565b8080601f0160208091040260200160405190810160405280939291908181526020018383808284376000920191909152505073ffffffffffffffffffffffffffffffffffffffff7f000000000000000000000000000000000000000000000000000000000000000016929150506102b4565b82828151811061024457fe5b602090810291909101015260010161019d565b50610260610337565b610268610348565b92915050565b610298817f42414c000000000000000000000000000000000000000000000000000000000061034f565b50565b6102ad600260005414156101906100e8565b6002600055565b6060600060608473ffffffffffffffffffffffffffffffffffffffff16846040516102df91906104ef565b600060405180830381855af49150503d806000811461031a576040519150601f19603f3d011682016040523d82523d6000602084013e61031f565b606091505b509150915061032e82826103ca565b95945050505050565b4780156102985761029833826103f4565b6001600055565b7f08c379a000000000000000000000000000000000000000000000000000000000600090815260206004526007602452600a808404818106603090810160081b958390069590950190829004918206850160101b01602363ffffff0060e086901c160160181b0190930160c81b60445260e882901c90606490fd5b606082156103d9575080610268565b8151156103e95781518083602001fd5b6102686101ae61026e565b610403814710156101a36100e8565b60008273ffffffffffffffffffffffffffffffffffffffff16826040516104299061050b565b60006040518083038185875af1925050503d8060008114610466576040519150601f19603f3d011682016040523d82523d6000602084013e61046b565b606091505b5050905061047b816101a46100e8565b505050565b60008060208385031215610492578182fd5b823567ffffffffffffffff808211156104a9578384fd5b818501915085601f8301126104bc578384fd5b8135818111156104ca578485fd5b86602080830285010111156104dd578485fd5b60209290920196919550909350505050565b6000825161050181846020870161064d565b9190910192915050565b90565b73ffffffffffffffffffffffffffffffffffffffff91909116815260200190565b6000602080830181845280855180835260408601915060408482028701019250838701855b828110156105d6577fffffffffffffffffffffffffffffffffffffffffffffffffffffffffffffffc088860301845281518051808752610599818989018a850161064d565b601f017fffffffffffffffffffffffffffffffffffffffffffffffffffffffffffffffe01695909501860194509285019290850190600101610554565b5092979650505050505050565b60008083357fffffffffffffffffffffffffffffffffffffffffffffffffffffffffffffffe1843603018112610617578283fd5b83018035915067ffffffffffffffff821115610631578283fd5b60200191503681900382131561064657600080fd5b9250929050565b60005b83811015610668578181015183820152602001610650565b83811115610677576000848401525b5050505056fea264697066735822122071ba586b3bffb1f6af93f4ec913893fd0e436c4c2284f76439d9f27c1091794164736f6c63430007010033",
  "linkReferences": {},
  "deployedLinkReferences": {}
}