{
  "_format": "hh-sol-artifact-1",
  "contractName": "MidasLinearPoolRebalancer",
  "sourceName": "contracts/midas-linear-pool/MidasLinearPoolRebalancer.sol",
  "abi": [
    {
      "inputs": [
        {
          "internalType": "contract IVault",
          "name": "vault",
          "type": "address"
        },
        {
          "internalType": "contract IBalancerQueries",
          "name": "queries",
          "type": "address"
        }
      ],
      "stateMutability": "nonpayable",
      "type": "constructor"
    },
    {
      "inputs": [],
      "name": "getPool",
      "outputs": [
        {
          "internalType": "contract ILinearPool",
          "name": "",
          "type": "address"
        }
      ],
      "stateMutability": "view",
      "type": "function"
    },
    {
      "inputs": [
        {
          "internalType": "address",
          "name": "recipient",
          "type": "address"
        }
      ],
      "name": "rebalance",
      "outputs": [
        {
          "internalType": "uint256",
          "name": "",
          "type": "uint256"
        }
      ],
      "stateMutability": "nonpayable",
      "type": "function"
    },
    {
      "inputs": [
        {
          "internalType": "address",
          "name": "recipient",
          "type": "address"
        },
        {
          "internalType": "uint256",
          "name": "extraMain",
          "type": "uint256"
        }
      ],
      "name": "rebalanceWithExtraMain",
      "outputs": [
        {
          "internalType": "uint256",
          "name": "",
          "type": "uint256"
        }
      ],
      "stateMutability": "nonpayable",
      "type": "function"
    }
  ],
  "bytecode": "0x6101806040523480156200001257600080fd5b506040516200219c3803806200219c833981016040819052620000359162000664565b6200003f620004fe565b8282826001600160a01b0316631dd746ea6040518163ffffffff1660e01b815260040160006040518083038186803b1580156200007b57600080fd5b505afa15801562000090573d6000803e3d6000fd5b505050506040513d6000823e601f3d908101601f19168201604052620000ba9190810190620005a0565b836001600160a01b0316634d64cd746040518163ffffffff1660e01b815260040160206040518083038186803b158015620000f457600080fd5b505afa15801562000109573d6000803e3d6000fd5b505050506040513d601f19601f820116820180604052508101906200012f91906200064b565b815181106200013a57fe5b602090810291909101810151610100526001600160601b0319606085901b166080526040805163038fff2d60e41b815290516001600160a01b038616926338fff2d09260048082019391829003018186803b1580156200019957600080fd5b505afa158015620001ae573d6000803e3d6000fd5b505050506040513d601f19601f82011682018060405250810190620001d491906200064b565b60a08181525050826001600160a01b0316634de046d56040518163ffffffff1660e01b815260040160206040518083038186803b1580156200021557600080fd5b505afa1580156200022a573d6000803e3d6000fd5b505050506040513d601f19601f820116820180604052508101906200025091906200057a565b6001600160a01b031660c0816001600160a01b031660601b81525050826001600160a01b031663f174e2416040518163ffffffff1660e01b815260040160206040518083038186803b158015620002a657600080fd5b505afa158015620002bb573d6000803e3d6000fd5b505050506040513d601f19601f82011682018060405250810190620002e191906200057a565b6001600160601b0319606091821b811660e05292811b8316610120521b166101405250600062000310620004fe565b9050806001600160a01b0316634de046d56040518163ffffffff1660e01b815260040160206040518083038186803b1580156200034c57600080fd5b505afa15801562000361573d6000803e3d6000fd5b505050506040513d601f19601f820116820180604052508101906200038791906200057a565b6001600160a01b031663313ce5676040518163ffffffff1660e01b815260040160206040518083038186803b158015620003c057600080fd5b505afa158015620003d5573d6000803e3d6000fd5b505050506040513d601f19601f82011682018060405250810190620003fb9190620006a2565b816001600160a01b031663f174e2416040518163ffffffff1660e01b815260040160206040518083038186803b1580156200043557600080fd5b505afa1580156200044a573d6000803e3d6000fd5b505050506040513d601f19601f820116820180604052508101906200047091906200057a565b6001600160a01b031663313ce5676040518163ffffffff1660e01b815260040160206040518083038186803b158015620004a957600080fd5b505afa158015620004be573d6000803e3d6000fd5b505050506040513d601f19601f82011682018060405250810190620004e49190620006a2565b60ff91900360120116600a0a610160525062000705915050565b6000336001600160a01b0316635ed312826040518163ffffffff1660e01b815260040160206040518083038186803b1580156200053a57600080fd5b505afa1580156200054f573d6000803e3d6000fd5b505050506040513d601f19601f820116820180604052508101906200057591906200057a565b905090565b6000602082840312156200058c578081fd5b81516200059981620006ec565b9392505050565b60006020808385031215620005b3578182fd5b82516001600160401b0380821115620005ca578384fd5b818501915085601f830112620005de578384fd5b815181811115620005ed578485fd5b8381029150620005ff848301620006c5565b8181528481019084860184860187018a10156200061a578788fd5b8795505b838610156200063e5780518352600195909501949186019186016200061e565b5098975050505050505050565b6000602082840312156200065d578081fd5b5051919050565b6000806040838503121562000677578081fd5b82516200068481620006ec565b60208401519092506200069781620006ec565b809150509250929050565b600060208284031215620006b4578081fd5b815160ff8116811462000599578182fd5b6040518181016001600160401b0381118282101715620006e457600080fd5b604052919050565b6001600160a01b03811681146200070257600080fd5b50565b60805160601c60a05160c05160601c60e05160601c610100516101205160601c6101405160601c610160516119aa620007f26000398061102f52508061050952806108215250806101335280610c145280610f6d5280610fcf5250806103bf52508061046c5280610599528061074852806108ec5280610cbf52806110535280611138528061119a52508060ea5280610190528061043052806105cc528061063152806106d2528061078452806108b1528061111652508061016f5280610402528061071a5280610a7d5280610b5c5280610df55280610ed45250806099528061030952506119aa6000f3fe608060405234801561001057600080fd5b50600436106100415760003560e01c8063026b1d5f1461004657806321c2819114610064578063df633d8d14610084575b600080fd5b61004e610097565b60405161005b9190611672565b60405180910390f35b610077610072366004611530565b6100bb565b60405161005b9190611913565b61007761009236600461154c565b6100ce565b7f000000000000000000000000000000000000000000000000000000000000000090565b60006100c682610122565b90505b919050565b600061011273ffffffffffffffffffffffffffffffffffffffff7f000000000000000000000000000000000000000000000000000000000000000016333085610259565b61011b83610122565b9392505050565b60008061012d610302565b905060007f000000000000000000000000000000000000000000000000000000000000000073ffffffffffffffffffffffffffffffffffffffff1663b05f8e487f00000000000000000000000000000000000000000000000000000000000000007f00000000000000000000000000000000000000000000000000000000000000006040518363ffffffff1660e01b81526004016101cc9291906117be565b60806040518083038186803b1580156101e457600080fd5b505afa1580156101f8573d6000803e3d6000fd5b505050506040513d601f19601f8201168201806040525081019061021c91906115d2565b50505090508181101561023e57610235818303856103eb565b925050506100c9565b818111156102525761023582820385610703565b5050919050565b6102fc846323b872dd60e01b85858560405160240161027a939291906116ba565b604080517fffffffffffffffffffffffffffffffffffffffffffffffffffffffffffffffe08184030181529190526020810180517bffffffffffffffffffffffffffffffffffffffffffffffffffffffff167fffffffff0000000000000000000000000000000000000000000000000000000090931692909217909152610911565b50505050565b60008060007f000000000000000000000000000000000000000000000000000000000000000073ffffffffffffffffffffffffffffffffffffffff166363fe3b566040518163ffffffff1660e01b8152600401604080518083038186803b15801561036c57600080fd5b505afa158015610380573d6000803e3d6000fd5b505050506040513d601f19601f820116820180604052508101906103a491906115af565b9150915060006002828401816103b657fe5b0490506103e3817f00000000000000000000000000000000000000000000000000000000000000006109be565b935050505090565b60006103f561147d565b6040805160c081019091527f0000000000000000000000000000000000000000000000000000000000000000815260208101600081526020017f000000000000000000000000000000000000000000000000000000000000000073ffffffffffffffffffffffffffffffffffffffff1681526020017f000000000000000000000000000000000000000000000000000000000000000073ffffffffffffffffffffffffffffffffffffffff1681526020018581526020016040518060200160405280600081525081525090506104c96114e0565b6040517fe969f6b300000000000000000000000000000000000000000000000000000000815260009073ffffffffffffffffffffffffffffffffffffffff7f0000000000000000000000000000000000000000000000000000000000000000169063e969f6b3906105409086908690600401611850565b602060405180830381600087803b15801561055a57600080fd5b505af115801561056e573d6000803e3d6000fd5b505050506040513d601f19601f820116820180604052508101906105929190611597565b90506105be7f000000000000000000000000000000000000000000000000000000000000000082610a11565b6105c781610c82565b6105f17f000000000000000000000000000000000000000000000000000000000000000087610d89565b6040517f70a0823100000000000000000000000000000000000000000000000000000000815260009073ffffffffffffffffffffffffffffffffffffffff7f000000000000000000000000000000000000000000000000000000000000000016906370a0823190610666903090600401611672565b60206040518083038186803b15801561067e57600080fd5b505afa158015610692573d6000803e3d6000fd5b505050506040513d601f19601f820116820180604052508101906106b69190611597565b90506106f973ffffffffffffffffffffffffffffffffffffffff7f0000000000000000000000000000000000000000000000000000000000000000168783611004565b9695505050505050565b600061070d61147d565b6040805160c081019091527f0000000000000000000000000000000000000000000000000000000000000000815260208101600181526020017f000000000000000000000000000000000000000000000000000000000000000073ffffffffffffffffffffffffffffffffffffffff1681526020017f000000000000000000000000000000000000000000000000000000000000000073ffffffffffffffffffffffffffffffffffffffff1681526020018581526020016040518060200160405280600081525081525090506107e16114e0565b6040517fe969f6b300000000000000000000000000000000000000000000000000000000815260009073ffffffffffffffffffffffffffffffffffffffff7f0000000000000000000000000000000000000000000000000000000000000000169063e969f6b3906108589086908690600401611850565b602060405180830381600087803b15801561087257600080fd5b505af1158015610886573d6000803e3d6000fd5b505050506040513d601f19601f820116820180604052508101906108aa9190611597565b90506108d67f000000000000000000000000000000000000000000000000000000000000000087610a11565b6108e76108e282611028565b6110fc565b6105f17f000000000000000000000000000000000000000000000000000000000000000082610d89565b600060608373ffffffffffffffffffffffffffffffffffffffff168360405161093a9190611656565b6000604051808303816000865af19150503d8060008114610977576040519150601f19603f3d011682016040523d82523d6000602084013e61097c565b606091505b50915091506000821415610994573d6000803e3d6000fd5b6102fc8151600014806109b65750818060200190518101906109b69190611577565b6101a2611258565b60006109cd8215156004611258565b670de0b6b3a764000083026109ff8415806109f85750670de0b6b3a76400008583816109f557fe5b04145b6005611258565b828181610a0857fe5b04949350505050565b6040805160028082526060828101909352816020015b610a2f611507565b815260200190600190039081610a27579050509050600081600081518110610a5357fe5b6020026020010151600001906002811115610a6a57fe5b90816002811115610a7757fe5b815250507f000000000000000000000000000000000000000000000000000000000000000081600081518110610aa957fe5b602002602001015160200181815250508181600081518110610ac757fe5b602002602001015160600181815250508281600081518110610ae557fe5b60200260200101516040019073ffffffffffffffffffffffffffffffffffffffff16908173ffffffffffffffffffffffffffffffffffffffff1681525050600281600181518110610b3257fe5b6020026020010151600001906002811115610b4957fe5b90816002811115610b5657fe5b815250507f000000000000000000000000000000000000000000000000000000000000000081600181518110610b8857fe5b60200260200101516020018181525050600081600181518110610ba757fe5b602002602001015160600181815250508281600181518110610bc557fe5b602090810291909101015173ffffffffffffffffffffffffffffffffffffffff918216604091820152517fe6c460920000000000000000000000000000000000000000000000000000000081527f00000000000000000000000000000000000000000000000000000000000000009091169063e6c4609290610c4b90849060040161173a565b600060405180830381600087803b158015610c6557600080fd5b505af1158015610c79573d6000803e3d6000fd5b50505050505050565b6040517fdb006a7500000000000000000000000000000000000000000000000000000000815273ffffffffffffffffffffffffffffffffffffffff7f0000000000000000000000000000000000000000000000000000000000000000169063db006a7590610cf4908490600401611913565b602060405180830381600087803b158015610d0e57600080fd5b505af1158015610d22573d6000803e3d6000fd5b505050506040513d601f19601f82011682018060405250810190610d469190611597565b15610d86576040517f08c379a0000000000000000000000000000000000000000000000000000000008152600401610d7d906117e2565b60405180910390fd5b50565b6040805160028082526060828101909352816020015b610da7611507565b815260200190600190039081610d9f579050509050600281600081518110610dcb57fe5b6020026020010151600001906002811115610de257fe5b90816002811115610def57fe5b815250507f000000000000000000000000000000000000000000000000000000000000000081600081518110610e2157fe5b602002602001015160200181815250508181600081518110610e3f57fe5b602002602001015160600181815250508281600081518110610e5d57fe5b60200260200101516040019073ffffffffffffffffffffffffffffffffffffffff16908173ffffffffffffffffffffffffffffffffffffffff1681525050600181600181518110610eaa57fe5b6020026020010151600001906002811115610ec157fe5b90816002811115610ece57fe5b815250507f000000000000000000000000000000000000000000000000000000000000000081600181518110610f0057fe5b602002602001015160200181815250508181600181518110610f1e57fe5b602002602001015160600181815250508281600181518110610f3c57fe5b602090810291909101015173ffffffffffffffffffffffffffffffffffffffff918216604090910152610f929084167f00000000000000000000000000000000000000000000000000000000000000008461126a565b6040517fe6c4609200000000000000000000000000000000000000000000000000000000815273ffffffffffffffffffffffffffffffffffffffff7f0000000000000000000000000000000000000000000000000000000000000000169063e6c4609290610c4b90849060040161173a565b6110238363a9059cbb60e01b848460405160240161027a929190611714565b505050565b60006100c67f00000000000000000000000000000000000000000000000000000000000000006110f67f000000000000000000000000000000000000000000000000000000000000000073ffffffffffffffffffffffffffffffffffffffff16633648b3996040518163ffffffff1660e01b815260040160206040518083038186803b1580156110b757600080fd5b505afa1580156110cb573d6000803e3d6000fd5b505050506040513d601f19601f820116820180604052508101906110ef9190611597565b859061135f565b906113a1565b61115d73ffffffffffffffffffffffffffffffffffffffff7f0000000000000000000000000000000000000000000000000000000000000000167f00000000000000000000000000000000000000000000000000000000000000008361126a565b6040517fa0712d6800000000000000000000000000000000000000000000000000000000815273ffffffffffffffffffffffffffffffffffffffff7f0000000000000000000000000000000000000000000000000000000000000000169063a0712d68906111cf908490600401611913565b602060405180830381600087803b1580156111e957600080fd5b505af11580156111fd573d6000803e3d6000fd5b505050506040513d601f19601f820116820180604052508101906112219190611597565b15610d86576040517f08c379a0000000000000000000000000000000000000000000000000000000008152600401610d7d90611819565b8161126657611266816113ee565b5050565b801580159061131b57506040517fdd62ed3e00000000000000000000000000000000000000000000000000000000815273ffffffffffffffffffffffffffffffffffffffff84169063dd62ed3e906112c89030908690600401611693565b60206040518083038186803b1580156112e057600080fd5b505afa1580156112f4573d6000803e3d6000fd5b505050506040513d601f19601f820116820180604052508101906113189190611597565b15155b15611340576113408363095ea7b360e01b84600060405160240161027a9291906116eb565b6110238363095ea7b360e01b848460405160240161027a929190611714565b600082820261138384158061137c57508385838161137957fe5b04145b6003611258565b6001670de0b6b3a76400006001830304018115150291505092915050565b60006113b08215156004611258565b670de0b6b3a764000083026113d88415806109f85750670de0b6b3a76400008583816109f557fe5b6001836001830304018115150291505092915050565b7f08c379a000000000000000000000000000000000000000000000000000000000600090815260206004526007602452600a808304818106603090810160081b83860601918390049283060160101b016642414c230000300160c81b604452610d86917f42414c0000000000000000000000000000000000000000000000000000000000906242414c90606490fd5b6040805160c08101909152600080825260208201908152602001600073ffffffffffffffffffffffffffffffffffffffff168152602001600073ffffffffffffffffffffffffffffffffffffffff16815260200160008152602001606081525090565b60408051608081018252600080825260208201819052918101829052606081019190915290565b604080516080810190915280600081526000602082018190526040820181905260609091015290565b600060208284031215611541578081fd5b813561011b81611952565b6000806040838503121561155e578081fd5b823561156981611952565b946020939093013593505050565b600060208284031215611588578081fd5b8151801515811461011b578182fd5b6000602082840312156115a8578081fd5b5051919050565b600080604083850312156115c1578182fd5b505080516020909101519092909150565b600080600080608085870312156115e7578182fd5b845193506020850151925060408501519150606085015161160781611952565b939692955090935050565b73ffffffffffffffffffffffffffffffffffffffff808251168352602082015115156020840152806040830151166040840152506060810151151560608301525050565b6000825161166881846020870161191c565b9190910192915050565b73ffffffffffffffffffffffffffffffffffffffff91909116815260200190565b73ffffffffffffffffffffffffffffffffffffffff92831681529116602082015260400190565b73ffffffffffffffffffffffffffffffffffffffff9384168152919092166020820152604081019190915260600190565b73ffffffffffffffffffffffffffffffffffffffff92909216825260ff16602082015260400190565b73ffffffffffffffffffffffffffffffffffffffff929092168252602082015260400190565b602080825282518282018190526000919060409081850190868401855b828110156117b157815180516003811061176d57fe5b855280870151878601528581015173ffffffffffffffffffffffffffffffffffffffff16868601526060908101519085015260809093019290850190600101611757565b5091979650505050505050565b91825273ffffffffffffffffffffffffffffffffffffffff16602082015260400190565b60208082526011908201527f756e7772617070696e67206661696c6564000000000000000000000000000000604082015260600190565b6020808252600f908201527f7772617070696e67206661696c65640000000000000000000000000000000000604082015260600190565b600060a08252835160a0830152602084015161186b81611948565b8060c084015250604084015173ffffffffffffffffffffffffffffffffffffffff80821660e0850152806060870151166101008501525050608084015161012083015260a084015160c06101408401528051806101608501526101806118d7828287016020860161191c565b807fffffffffffffffffffffffffffffffffffffffffffffffffffffffffffffffe0601f840116860101935050505061011b6020830184611612565b90815260200190565b60005b8381101561193757818101518382015260200161191f565b838111156102fc5750506000910152565b60028110610d8657fe5b73ffffffffffffffffffffffffffffffffffffffff81168114610d8657600080fdfea2646970667358221220c9a0a20b547ac5da8bc2dc206275c5da4e1ee0c3566f05af7f86c7e8f76b353064736f6c63430007010033",
  "linkReferences": {},
  "deployedLinkReferences": {}
}