{
  "_format": "hh-sol-artifact-1",
  "contractName": "MidasLinearPool",
  "sourceName": "contracts/midas-linear-pool/MidasLinearPool.sol",
  "abi": [
    {
      "inputs": [
        {
          "components": [
            {
              "internalType": "contract IVault",
              "name": "vault",
              "type": "address"
            },
            {
              "internalType": "string",
              "name": "name",
              "type": "string"
            },
            {
              "internalType": "string",
              "name": "symbol",
              "type": "string"
            },
            {
              "internalType": "contract IERC20",
              "name": "mainToken",
              "type": "address"
            },
            {
              "internalType": "contract IERC20",
              "name": "wrappedToken",
              "type": "address"
            },
            {
              "internalType": "address",
              "name": "assetManager",
              "type": "address"
            },
            {
              "internalType": "uint256",
              "name": "upperTarget",
              "type": "uint256"
            },
            {
              "internalType": "uint256",
              "name": "swapFeePercentage",
              "type": "uint256"
            },
            {
              "internalType": "uint256",
              "name": "pauseWindowDuration",
              "type": "uint256"
            },
            {
              "internalType": "uint256",
              "name": "bufferPeriodDuration",
              "type": "uint256"
            },
            {
              "internalType": "address",
              "name": "owner",
              "type": "address"
            },
            {
              "internalType": "string",
              "name": "version",
              "type": "string"
            }
          ],
          "internalType": "struct MidasLinearPool.ConstructorArgs",
          "name": "args",
          "type": "tuple"
        }
      ],
      "stateMutability": "nonpayable",
      "type": "constructor"
    },
    {
      "anonymous": false,
      "inputs": [
        {
          "indexed": true,
          "internalType": "address",
          "name": "owner",
          "type": "address"
        },
        {
          "indexed": true,
          "internalType": "address",
          "name": "spender",
          "type": "address"
        },
        {
          "indexed": false,
          "internalType": "uint256",
          "name": "value",
          "type": "uint256"
        }
      ],
      "name": "Approval",
      "type": "event"
    },
    {
      "anonymous": false,
      "inputs": [
        {
          "indexed": false,
          "internalType": "bool",
          "name": "paused",
          "type": "bool"
        }
      ],
      "name": "PausedStateChanged",
      "type": "event"
    },
    {
      "anonymous": false,
      "inputs": [
        {
          "indexed": false,
          "internalType": "bool",
          "name": "enabled",
          "type": "bool"
        }
      ],
      "name": "RecoveryModeStateChanged",
      "type": "event"
    },
    {
      "anonymous": false,
      "inputs": [
        {
          "indexed": false,
          "internalType": "uint256",
          "name": "swapFeePercentage",
          "type": "uint256"
        }
      ],
      "name": "SwapFeePercentageChanged",
      "type": "event"
    },
    {
      "anonymous": false,
      "inputs": [
        {
          "indexed": true,
          "internalType": "contract IERC20",
          "name": "token",
          "type": "address"
        },
        {
          "indexed": false,
          "internalType": "uint256",
          "name": "lowerTarget",
          "type": "uint256"
        },
        {
          "indexed": false,
          "internalType": "uint256",
          "name": "upperTarget",
          "type": "uint256"
        }
      ],
      "name": "TargetsSet",
      "type": "event"
    },
    {
      "anonymous": false,
      "inputs": [
        {
          "indexed": true,
          "internalType": "address",
          "name": "from",
          "type": "address"
        },
        {
          "indexed": true,
          "internalType": "address",
          "name": "to",
          "type": "address"
        },
        {
          "indexed": false,
          "internalType": "uint256",
          "name": "value",
          "type": "uint256"
        }
      ],
      "name": "Transfer",
      "type": "event"
    },
    {
      "inputs": [],
      "name": "DOMAIN_SEPARATOR",
      "outputs": [
        {
          "internalType": "bytes32",
          "name": "",
          "type": "bytes32"
        }
      ],
      "stateMutability": "view",
      "type": "function"
    },
    {
      "inputs": [
        {
          "internalType": "address",
          "name": "owner",
          "type": "address"
        },
        {
          "internalType": "address",
          "name": "spender",
          "type": "address"
        }
      ],
      "name": "allowance",
      "outputs": [
        {
          "internalType": "uint256",
          "name": "",
          "type": "uint256"
        }
      ],
      "stateMutability": "view",
      "type": "function"
    },
    {
      "inputs": [
        {
          "internalType": "address",
          "name": "spender",
          "type": "address"
        },
        {
          "internalType": "uint256",
          "name": "amount",
          "type": "uint256"
        }
      ],
      "name": "approve",
      "outputs": [
        {
          "internalType": "bool",
          "name": "",
          "type": "bool"
        }
      ],
      "stateMutability": "nonpayable",
      "type": "function"
    },
    {
      "inputs": [
        {
          "internalType": "address",
          "name": "account",
          "type": "address"
        }
      ],
      "name": "balanceOf",
      "outputs": [
        {
          "internalType": "uint256",
          "name": "",
          "type": "uint256"
        }
      ],
      "stateMutability": "view",
      "type": "function"
    },
    {
      "inputs": [],
      "name": "decimals",
      "outputs": [
        {
          "internalType": "uint8",
          "name": "",
          "type": "uint8"
        }
      ],
      "stateMutability": "view",
      "type": "function"
    },
    {
      "inputs": [
        {
          "internalType": "address",
          "name": "spender",
          "type": "address"
        },
        {
          "internalType": "uint256",
          "name": "amount",
          "type": "uint256"
        }
      ],
      "name": "decreaseAllowance",
      "outputs": [
        {
          "internalType": "bool",
          "name": "",
          "type": "bool"
        }
      ],
      "stateMutability": "nonpayable",
      "type": "function"
    },
    {
      "inputs": [],
      "name": "disableRecoveryMode",
      "outputs": [],
      "stateMutability": "nonpayable",
      "type": "function"
    },
    {
      "inputs": [],
      "name": "enableRecoveryMode",
      "outputs": [],
      "stateMutability": "nonpayable",
      "type": "function"
    },
    {
      "inputs": [
        {
          "internalType": "bytes4",
          "name": "selector",
          "type": "bytes4"
        }
      ],
      "name": "getActionId",
      "outputs": [
        {
          "internalType": "bytes32",
          "name": "",
          "type": "bytes32"
        }
      ],
      "stateMutability": "view",
      "type": "function"
    },
    {
      "inputs": [],
      "name": "getAuthorizer",
      "outputs": [
        {
          "internalType": "contract IAuthorizer",
          "name": "",
          "type": "address"
        }
      ],
      "stateMutability": "view",
      "type": "function"
    },
    {
      "inputs": [],
      "name": "getBptIndex",
      "outputs": [
        {
          "internalType": "uint256",
          "name": "",
          "type": "uint256"
        }
      ],
      "stateMutability": "pure",
      "type": "function"
    },
    {
      "inputs": [],
      "name": "getDomainSeparator",
      "outputs": [
        {
          "internalType": "bytes32",
          "name": "",
          "type": "bytes32"
        }
      ],
      "stateMutability": "view",
      "type": "function"
    },
    {
      "inputs": [],
      "name": "getMainIndex",
      "outputs": [
        {
          "internalType": "uint256",
          "name": "",
          "type": "uint256"
        }
      ],
      "stateMutability": "view",
      "type": "function"
    },
    {
      "inputs": [],
      "name": "getMainToken",
      "outputs": [
        {
          "internalType": "contract IERC20",
          "name": "",
          "type": "address"
        }
      ],
      "stateMutability": "view",
      "type": "function"
    },
    {
      "inputs": [
        {
          "internalType": "address",
          "name": "account",
          "type": "address"
        }
      ],
      "name": "getNextNonce",
      "outputs": [
        {
          "internalType": "uint256",
          "name": "",
          "type": "uint256"
        }
      ],
      "stateMutability": "view",
      "type": "function"
    },
    {
      "inputs": [],
      "name": "getOwner",
      "outputs": [
        {
          "internalType": "address",
          "name": "",
          "type": "address"
        }
      ],
      "stateMutability": "view",
      "type": "function"
    },
    {
      "inputs": [],
      "name": "getPausedState",
      "outputs": [
        {
          "internalType": "bool",
          "name": "paused",
          "type": "bool"
        },
        {
          "internalType": "uint256",
          "name": "pauseWindowEndTime",
          "type": "uint256"
        },
        {
          "internalType": "uint256",
          "name": "bufferPeriodEndTime",
          "type": "uint256"
        }
      ],
      "stateMutability": "view",
      "type": "function"
    },
    {
      "inputs": [],
      "name": "getPoolId",
      "outputs": [
        {
          "internalType": "bytes32",
          "name": "",
          "type": "bytes32"
        }
      ],
      "stateMutability": "view",
      "type": "function"
    },
    {
      "inputs": [],
      "name": "getProtocolFeesCollector",
      "outputs": [
        {
          "internalType": "contract IProtocolFeesCollector",
          "name": "",
          "type": "address"
        }
      ],
      "stateMutability": "view",
      "type": "function"
    },
    {
      "inputs": [],
      "name": "getRate",
      "outputs": [
        {
          "internalType": "uint256",
          "name": "",
          "type": "uint256"
        }
      ],
      "stateMutability": "view",
      "type": "function"
    },
    {
      "inputs": [],
      "name": "getScalingFactors",
      "outputs": [
        {
          "internalType": "uint256[]",
          "name": "",
          "type": "uint256[]"
        }
      ],
      "stateMutability": "view",
      "type": "function"
    },
    {
      "inputs": [],
      "name": "getSwapFeePercentage",
      "outputs": [
        {
          "internalType": "uint256",
          "name": "",
          "type": "uint256"
        }
      ],
      "stateMutability": "view",
      "type": "function"
    },
    {
      "inputs": [],
      "name": "getTargets",
      "outputs": [
        {
          "internalType": "uint256",
          "name": "lowerTarget",
          "type": "uint256"
        },
        {
          "internalType": "uint256",
          "name": "upperTarget",
          "type": "uint256"
        }
      ],
      "stateMutability": "view",
      "type": "function"
    },
    {
      "inputs": [],
      "name": "getVault",
      "outputs": [
        {
          "internalType": "contract IVault",
          "name": "",
          "type": "address"
        }
      ],
      "stateMutability": "view",
      "type": "function"
    },
    {
      "inputs": [],
      "name": "getVirtualSupply",
      "outputs": [
        {
          "internalType": "uint256",
          "name": "",
          "type": "uint256"
        }
      ],
      "stateMutability": "view",
      "type": "function"
    },
    {
      "inputs": [],
      "name": "getWrappedIndex",
      "outputs": [
        {
          "internalType": "uint256",
          "name": "",
          "type": "uint256"
        }
      ],
      "stateMutability": "view",
      "type": "function"
    },
    {
      "inputs": [],
      "name": "getWrappedToken",
      "outputs": [
        {
          "internalType": "contract IERC20",
          "name": "",
          "type": "address"
        }
      ],
      "stateMutability": "view",
      "type": "function"
    },
    {
      "inputs": [],
      "name": "getWrappedTokenRate",
      "outputs": [
        {
          "internalType": "uint256",
          "name": "",
          "type": "uint256"
        }
      ],
      "stateMutability": "view",
      "type": "function"
    },
    {
      "inputs": [],
      "name": "inRecoveryMode",
      "outputs": [
        {
          "internalType": "bool",
          "name": "",
          "type": "bool"
        }
      ],
      "stateMutability": "view",
      "type": "function"
    },
    {
      "inputs": [
        {
          "internalType": "address",
          "name": "spender",
          "type": "address"
        },
        {
          "internalType": "uint256",
          "name": "addedValue",
          "type": "uint256"
        }
      ],
      "name": "increaseAllowance",
      "outputs": [
        {
          "internalType": "bool",
          "name": "",
          "type": "bool"
        }
      ],
      "stateMutability": "nonpayable",
      "type": "function"
    },
    {
      "inputs": [],
      "name": "initialize",
      "outputs": [],
      "stateMutability": "nonpayable",
      "type": "function"
    },
    {
      "inputs": [],
      "name": "name",
      "outputs": [
        {
          "internalType": "string",
          "name": "",
          "type": "string"
        }
      ],
      "stateMutability": "view",
      "type": "function"
    },
    {
      "inputs": [
        {
          "internalType": "address",
          "name": "owner",
          "type": "address"
        }
      ],
      "name": "nonces",
      "outputs": [
        {
          "internalType": "uint256",
          "name": "",
          "type": "uint256"
        }
      ],
      "stateMutability": "view",
      "type": "function"
    },
    {
      "inputs": [
        {
          "internalType": "bytes32",
          "name": "poolId",
          "type": "bytes32"
        },
        {
          "internalType": "address",
          "name": "sender",
          "type": "address"
        },
        {
          "internalType": "address",
          "name": "",
          "type": "address"
        },
        {
          "internalType": "uint256[]",
          "name": "balances",
          "type": "uint256[]"
        },
        {
          "internalType": "uint256",
          "name": "",
          "type": "uint256"
        },
        {
          "internalType": "uint256",
          "name": "",
          "type": "uint256"
        },
        {
          "internalType": "bytes",
          "name": "userData",
          "type": "bytes"
        }
      ],
      "name": "onExitPool",
      "outputs": [
        {
          "internalType": "uint256[]",
          "name": "amountsOut",
          "type": "uint256[]"
        },
        {
          "internalType": "uint256[]",
          "name": "dueProtocolFees",
          "type": "uint256[]"
        }
      ],
      "stateMutability": "nonpayable",
      "type": "function"
    },
    {
      "inputs": [
        {
          "internalType": "bytes32",
          "name": "poolId",
          "type": "bytes32"
        },
        {
          "internalType": "address",
          "name": "sender",
          "type": "address"
        },
        {
          "internalType": "address",
          "name": "recipient",
          "type": "address"
        },
        {
          "internalType": "uint256[]",
          "name": "balances",
          "type": "uint256[]"
        },
        {
          "internalType": "uint256",
          "name": "",
          "type": "uint256"
        },
        {
          "internalType": "uint256",
          "name": "",
          "type": "uint256"
        },
        {
          "internalType": "bytes",
          "name": "userData",
          "type": "bytes"
        }
      ],
      "name": "onJoinPool",
      "outputs": [
        {
          "internalType": "uint256[]",
          "name": "amountsIn",
          "type": "uint256[]"
        },
        {
          "internalType": "uint256[]",
          "name": "dueProtocolFees",
          "type": "uint256[]"
        }
      ],
      "stateMutability": "nonpayable",
      "type": "function"
    },
    {
      "inputs": [
        {
          "components": [
            {
              "internalType": "enum IVault.SwapKind",
              "name": "kind",
              "type": "uint8"
            },
            {
              "internalType": "contract IERC20",
              "name": "tokenIn",
              "type": "address"
            },
            {
              "internalType": "contract IERC20",
              "name": "tokenOut",
              "type": "address"
            },
            {
              "internalType": "uint256",
              "name": "amount",
              "type": "uint256"
            },
            {
              "internalType": "bytes32",
              "name": "poolId",
              "type": "bytes32"
            },
            {
              "internalType": "uint256",
              "name": "lastChangeBlock",
              "type": "uint256"
            },
            {
              "internalType": "address",
              "name": "from",
              "type": "address"
            },
            {
              "internalType": "address",
              "name": "to",
              "type": "address"
            },
            {
              "internalType": "bytes",
              "name": "userData",
              "type": "bytes"
            }
          ],
          "internalType": "struct IPoolSwapStructs.SwapRequest",
          "name": "request",
          "type": "tuple"
        },
        {
          "internalType": "uint256[]",
          "name": "balances",
          "type": "uint256[]"
        },
        {
          "internalType": "uint256",
          "name": "indexIn",
          "type": "uint256"
        },
        {
          "internalType": "uint256",
          "name": "indexOut",
          "type": "uint256"
        }
      ],
      "name": "onSwap",
      "outputs": [
        {
          "internalType": "uint256",
          "name": "",
          "type": "uint256"
        }
      ],
      "stateMutability": "nonpayable",
      "type": "function"
    },
    {
      "inputs": [
        {
          "components": [
            {
              "internalType": "enum IVault.SwapKind",
              "name": "kind",
              "type": "uint8"
            },
            {
              "internalType": "contract IERC20",
              "name": "tokenIn",
              "type": "address"
            },
            {
              "internalType": "contract IERC20",
              "name": "tokenOut",
              "type": "address"
            },
            {
              "internalType": "uint256",
              "name": "amount",
              "type": "uint256"
            },
            {
              "internalType": "bytes32",
              "name": "poolId",
              "type": "bytes32"
            },
            {
              "internalType": "uint256",
              "name": "lastChangeBlock",
              "type": "uint256"
            },
            {
              "internalType": "address",
              "name": "from",
              "type": "address"
            },
            {
              "internalType": "address",
              "name": "to",
              "type": "address"
            },
            {
              "internalType": "bytes",
              "name": "userData",
              "type": "bytes"
            }
          ],
          "internalType": "struct IPoolSwapStructs.SwapRequest",
          "name": "request",
          "type": "tuple"
        },
        {
          "internalType": "uint256",
          "name": "balanceTokenIn",
          "type": "uint256"
        },
        {
          "internalType": "uint256",
          "name": "balanceTokenOut",
          "type": "uint256"
        }
      ],
      "name": "onSwap",
      "outputs": [
        {
          "internalType": "uint256",
          "name": "",
          "type": "uint256"
        }
      ],
      "stateMutability": "nonpayable",
      "type": "function"
    },
    {
      "inputs": [],
      "name": "pause",
      "outputs": [],
      "stateMutability": "nonpayable",
      "type": "function"
    },
    {
      "inputs": [
        {
          "internalType": "address",
          "name": "owner",
          "type": "address"
        },
        {
          "internalType": "address",
          "name": "spender",
          "type": "address"
        },
        {
          "internalType": "uint256",
          "name": "value",
          "type": "uint256"
        },
        {
          "internalType": "uint256",
          "name": "deadline",
          "type": "uint256"
        },
        {
          "internalType": "uint8",
          "name": "v",
          "type": "uint8"
        },
        {
          "internalType": "bytes32",
          "name": "r",
          "type": "bytes32"
        },
        {
          "internalType": "bytes32",
          "name": "s",
          "type": "bytes32"
        }
      ],
      "name": "permit",
      "outputs": [],
      "stateMutability": "nonpayable",
      "type": "function"
    },
    {
      "inputs": [
        {
          "internalType": "bytes32",
          "name": "",
          "type": "bytes32"
        },
        {
          "internalType": "address",
          "name": "sender",
          "type": "address"
        },
        {
          "internalType": "address",
          "name": "",
          "type": "address"
        },
        {
          "internalType": "uint256[]",
          "name": "balances",
          "type": "uint256[]"
        },
        {
          "internalType": "uint256",
          "name": "",
          "type": "uint256"
        },
        {
          "internalType": "uint256",
          "name": "",
          "type": "uint256"
        },
        {
          "internalType": "bytes",
          "name": "userData",
          "type": "bytes"
        }
      ],
      "name": "queryExit",
      "outputs": [
        {
          "internalType": "uint256",
          "name": "bptIn",
          "type": "uint256"
        },
        {
          "internalType": "uint256[]",
          "name": "amountsOut",
          "type": "uint256[]"
        }
      ],
      "stateMutability": "nonpayable",
      "type": "function"
    },
    {
      "inputs": [
        {
          "internalType": "bytes32",
          "name": "",
          "type": "bytes32"
        },
        {
          "internalType": "address",
          "name": "sender",
          "type": "address"
        },
        {
          "internalType": "address",
          "name": "",
          "type": "address"
        },
        {
          "internalType": "uint256[]",
          "name": "balances",
          "type": "uint256[]"
        },
        {
          "internalType": "uint256",
          "name": "",
          "type": "uint256"
        },
        {
          "internalType": "uint256",
          "name": "",
          "type": "uint256"
        },
        {
          "internalType": "bytes",
          "name": "userData",
          "type": "bytes"
        }
      ],
      "name": "queryJoin",
      "outputs": [
        {
          "internalType": "uint256",
          "name": "bptOut",
          "type": "uint256"
        },
        {
          "internalType": "uint256[]",
          "name": "amountsIn",
          "type": "uint256[]"
        }
      ],
      "stateMutability": "nonpayable",
      "type": "function"
    },
    {
      "inputs": [
        {
          "internalType": "uint256",
          "name": "swapFeePercentage",
          "type": "uint256"
        }
      ],
      "name": "setSwapFeePercentage",
      "outputs": [],
      "stateMutability": "nonpayable",
      "type": "function"
    },
    {
      "inputs": [
        {
          "internalType": "uint256",
          "name": "newLowerTarget",
          "type": "uint256"
        },
        {
          "internalType": "uint256",
          "name": "newUpperTarget",
          "type": "uint256"
        }
      ],
      "name": "setTargets",
      "outputs": [],
      "stateMutability": "nonpayable",
      "type": "function"
    },
    {
      "inputs": [],
      "name": "symbol",
      "outputs": [
        {
          "internalType": "string",
          "name": "",
          "type": "string"
        }
      ],
      "stateMutability": "view",
      "type": "function"
    },
    {
      "inputs": [],
      "name": "totalSupply",
      "outputs": [
        {
          "internalType": "uint256",
          "name": "",
          "type": "uint256"
        }
      ],
      "stateMutability": "view",
      "type": "function"
    },
    {
      "inputs": [
        {
          "internalType": "address",
          "name": "recipient",
          "type": "address"
        },
        {
          "internalType": "uint256",
          "name": "amount",
          "type": "uint256"
        }
      ],
      "name": "transfer",
      "outputs": [
        {
          "internalType": "bool",
          "name": "",
          "type": "bool"
        }
      ],
      "stateMutability": "nonpayable",
      "type": "function"
    },
    {
      "inputs": [
        {
          "internalType": "address",
          "name": "sender",
          "type": "address"
        },
        {
          "internalType": "address",
          "name": "recipient",
          "type": "address"
        },
        {
          "internalType": "uint256",
          "name": "amount",
          "type": "uint256"
        }
      ],
      "name": "transferFrom",
      "outputs": [
        {
          "internalType": "bool",
          "name": "",
          "type": "bool"
        }
      ],
      "stateMutability": "nonpayable",
      "type": "function"
    },
    {
      "inputs": [],
      "name": "unpause",
      "outputs": [],
      "stateMutability": "nonpayable",
      "type": "function"
    },
    {
      "inputs": [],
      "name": "version",
      "outputs": [
        {
          "internalType": "string",
          "name": "",
          "type": "string"
        }
      ],
      "stateMutability": "view",
      "type": "function"
    }
  ],
  "bytecode": "0x6102a06040523480156200001257600080fd5b50604051620058da380380620058da833981016040819052620000359162000d76565b6101608101518151602083015160408401516060850151608086015160c08701516200006188620003ec565b60e08901516101008a01516101208b01516101408c01518a6200009e8160006200008c8c8c62000475565b896200052660201b620014241760201c565b8b8b86868686838387878b86336001600160a01b031660001b8480604051806040016040528060018152602001603160f81b81525087878160039080519060200190620000ed92919062000bff565b5080516200010390600490602084019062000bff565b50506005805460ff19166012179055508151602092830120608052805191012060a052507f8b73c3c69bb8fe3d512ecc4cf759cc79239f7b179b0ffacaa9a75d522b39400f60c05260e0526001600160601b0319606091821b81166101005291901b166101205250620001829050630163f500831115610194620006f4565b620001966276a700821115610195620006f4565b4291909101610140819052016101605260601b6001600160601b031916610180526101a08690526040805163d2946c2b60e01b815290516001600160a01b0389169163d2946c2b916004808301926020929190829003018186803b158015620001fe57600080fd5b505afa15801562000213573d6000803e3d6000fd5b505050506040513d601f19601f8201168201806040525081019062000239919062000d37565b6001600160a01b03166101c0816001600160a01b031660601b8152505050505050505050876001600160a01b03166101e0816001600160a01b031660601b81525050866001600160a01b0316610200816001600160a01b031660601b81525050866001600160a01b0316886001600160a01b031610620002bb576002620002be565b60015b60ff16610220526001600160a01b0380881690891610620002e1576001620002e4565b60025b60ff1661024052620002f68862000709565b61026052620003058762000709565b61028052600062000318898289620007b5565b6200032385620008af565b50505050505050505050505062000340816200093e60201b60201c565b50620003e581608001516001600160a01b0316636f307dc36040518163ffffffff1660e01b815260040160206040518083038186803b1580156200038357600080fd5b505afa15801562000398573d6000803e3d6000fd5b505050506040513d601f19601f82011682018060405250810190620003be919062000d37565b6001600160a01b031682606001516001600160a01b031614610208620006f460201b60201c565b5062000ff3565b6040805160028082526060808301845292839291906020830190803683370190505090508260a00151816000815181106200042357fe5b60200260200101906001600160a01b031690816001600160a01b0316815250508260a00151816001815181106200045657fe5b6001600160a01b03909216602092830291909101909101529050919050565b60408051600280825260608281019093526001600160a01b038481169086161091839181602001602082028036833701905050905081620004b75783620004b9565b845b81600081518110620004c757fe5b60200260200101906001600160a01b031690816001600160a01b03168152505081620004f45784620004f6565b835b816001815181106200050457fe5b6001600160a01b03909216602092830291909101909101529150505b92915050565b60006200053e836200095360201b620015d91760201c565b606083516001016001600160401b03811180156200055b57600080fd5b5060405190808252806020026020018201604052801562000586578160200160208202803683370190505b50905030816000815181106200059857fe5b60200260200101906001600160a01b031690816001600160a01b03168152505060005b84518110156200060b57848181518110620005d257fe5b6020026020010151828260010181518110620005ea57fe5b6001600160a01b0390921660209283029190910190910152600101620005bb565b50606083516001016001600160401b03811180156200062957600080fd5b5060405190808252806020026020018201604052801562000654578160200160208202803683370190505b5090506000816000815181106200066757fe5b60200260200101906001600160a01b031690816001600160a01b03168152505060005b8451811015620006da57848181518110620006a157fe5b6020026020010151828260010181518110620006b957fe5b6001600160a01b03909216602092830291909101909101526001016200068a565b50620006e9878784846200095f565b979650505050505050565b816200070557620007058162000a59565b5050565b600080826001600160a01b031663313ce5676040518163ffffffff1660e01b815260040160206040518083038186803b1580156200074657600080fd5b505afa1580156200075b573d6000803e3d6000fd5b505050506040513d601f19601f8201168201806040525081019062000781919062000ecd565b60ff1690506000620007a060128362000a6e60201b620015e71760201c565b600a0a670de0b6b3a764000002949350505050565b620007c68183111561014c620006f4565b620007e36b0de0b6b39983494c589c000082111561014d620006f4565b620007fd670de0b6b3a7640000825b0615610161620006f4565b62000811670de0b6b3a764000083620007f2565b62000860670de0b6b3a76400008204604060206200084a670de0b6b3a764000087600854919004602080620015fd62000a86821b17811c565b62000a8660201b620015fd17909392919060201c565b6008556040516001600160a01b038416907fd0e27a0d0c2cb09280fa5e4487315455b32afcdcf012dc35b6ef2a0e3c4d128090620008a2908590859062000f9c565b60405180910390a2505050565b620008c464e8d4a5100082101560cb620006f4565b620008dc67016345785d8a000082111560ca620006f4565b620008fe8160c0603f60085462000a8660201b620015fd17909392919060201c565b6008556040517fa9ba3ffe0b6c366b81232caab38605a0699ad5398d6cce76f91ee809e322dafc906200093390839062000f93565b60405180910390a150565b80516200070590600990602084019062000bff565b80620007058162000aab565b600080856001600160a01b03166309b2760f866040518263ffffffff1660e01b815260040162000990919062000f7e565b602060405180830381600087803b158015620009ab57600080fd5b505af1158015620009c0573d6000803e3d6000fd5b505050506040513d601f19601f82011682018060405250810190620009e6919062000d5d565b604051633354e3e960e11b81529091506001600160a01b038716906366a9c7d29062000a1b9084908890889060040162000ef0565b600060405180830381600087803b15801562000a3657600080fd5b505af115801562000a4b573d6000803e3d6000fd5b509298975050505050505050565b62000a6b816210905360ea1b62000b37565b50565b600062000a80838311156001620006f4565b50900390565b600062000a9584848462000b98565b506001901b60001901811b1992909216911b1790565b60028151101562000abc5762000a6b565b60008160008151811062000acc57fe5b602002602001015190506000600190505b825181101562000b3257600083828151811062000af657fe5b6020026020010151905062000b27816001600160a01b0316846001600160a01b0316106065620006f460201b60201c565b915060010162000add565b505050565b62461bcd60e51b600090815260206004526007602452600a808404818106603090810160081b958390069590950190829004918206850160101b01602363ffffff0060e086901c160160181b0190930160c81b60445260e882901c90606490fd5b62000ba961010083106064620006f4565b62000be26001821015801562000bda575062000bd660ff846101000362000bf360201b620016201760201c565b8211155b6064620006f4565b62000b3283821c156101b4620006f4565b80820390821102900390565b828054600181600116156101000203166002900490600052602060002090601f016020900481019282601f1062000c4257805160ff191683800117855562000c72565b8280016001018555821562000c72579182015b8281111562000c7257825182559160200191906001019062000c55565b5062000c8092915062000c84565b5090565b5b8082111562000c80576000815560010162000c85565b8051620005208162000fdd565b600082601f83011262000cb9578081fd5b81516001600160401b0381111562000ccf578182fd5b602062000ce5601f8301601f1916820162000faa565b9250818352848183860101111562000cfc57600080fd5b60005b8281101562000d1c57848101820151848201830152810162000cff565b8281111562000d2e5760008284860101525b50505092915050565b60006020828403121562000d49578081fd5b815162000d568162000fdd565b9392505050565b60006020828403121562000d6f578081fd5b5051919050565b60006020828403121562000d88578081fd5b81516001600160401b038082111562000d9f578283fd5b818401915061018080838703121562000db6578384fd5b62000dc18162000faa565b905062000dcf868462000c9b565b815260208301518281111562000de3578485fd5b62000df18782860162000ca8565b60208301525060408301518281111562000e09578485fd5b62000e178782860162000ca8565b60408301525062000e2c866060850162000c9b565b606082015262000e40866080850162000c9b565b608082015262000e548660a0850162000c9b565b60a082015260c083015160c082015260e083015160e082015261010080840151818301525061012080840151818301525061014062000e968782860162000c9b565b90820152610160838101518381111562000eae578586fd5b62000ebc8882870162000ca8565b918301919091525095945050505050565b60006020828403121562000edf578081fd5b815160ff8116811462000d56578182fd5b60006060820185835260206060818501528186518084526080860191508288019350845b8181101562000f3c5762000f29855162000fd1565b8352938301939183019160010162000f14565b505084810360408601528551808252908201925081860190845b8181101562000a4b5762000f6b835162000fd1565b8552938301939183019160010162000f56565b602081016003831062000f8d57fe5b91905290565b90815260200190565b918252602082015260400190565b6040518181016001600160401b038111828210171562000fc957600080fd5b604052919050565b6001600160a01b031690565b6001600160a01b038116811462000a6b57600080fd5b60805160a05160c05160e0516101005160601c6101205160601c61014051610160516101805160601c6101a0516101c05160601c6101e05160601c6102005160601c6102205161024051610260516102805161475a62001180600039806107f45250806107905280612a61525080610718528061081c5280610c515280612edc5280613065528061319d52806132a85280613425528061355d5250806107b252806109bc5280610c175280612ea85280612fea528061303152806131275280613169528061327452806133af52806133f152806134e752806135295250806113f852806126cb52806127975280612a875280612e5d5280612f76528061322a528061333b5250806109e052806110ee5280611a915280611b305280612682528061274e5280612a265280612e1e5280612f2052806130b352806131eb52806132ec52806134735250806111cc5250806109495250508061181d5250806117f9525080610fd1525080610fad525080610f5d5250806123bf5250806124015250806123e0525061475a6000f3fe608060405234801561001057600080fd5b506004361061032b5760003560e01c80637ecebe00116101b2578063a457c2d7116100f9578063d505accf116100a2578063de82cd341161007c578063de82cd34146105e8578063ed24911d146105f0578063f174e241146105f8578063f5431aa8146106005761032b565b8063d505accf146105af578063d5c096c4146105c2578063dd62ed3e146105d55761032b565b8063b35056b8116100d3578063b35056b814610597578063b7b814fc1461059f578063d2946c2b146105a75761032b565b8063a457c2d714610569578063a9059cbb1461057c578063aaabadc51461058f5761032b565b8063893d20e81161015b57806395d89b411161013557806395d89b411461053b5780639d2c110c146105435780639f11080e146105565761032b565b8063893d20e8146105185780638d928af81461052057806390193b7c146105285761032b565b80638456cb591161018c5780638456cb59146104fd578063851c1bb31461050557806387ec6817146104675761032b565b80637ecebe00146104da5780638129fc1c146104ed57806382687a56146104f55761032b565b8063395093511161027657806355c676281161021f578063679aefce116101f9578063679aefce1461049e57806370a08231146104a657806374f3b009146104b95761032b565b806355c676281461045f5780636028bfd41461046757806363fe3b56146104885761032b565b80634de046d5116102505780634de046d51461043a57806354a844ba1461044f57806354fd4d50146104575761032b565b806339509351146104175780633f4ba83a1461042a5780634d64cd74146104325761032b565b80631dd746ea116102d85780633644e515116102b25780633644e515146103f257806338e9922e146103fa57806338fff2d01461040f5761032b565b80631dd746ea146103b557806323b872dd146103ca578063313ce567146103dd5761032b565b806316b8d6ff1161030957806316b8d6ff1461038e57806318160ddd146103965780631c0de0511461039e5761032b565b806301ec954a1461033057806306fdde0314610359578063095ea7b31461036e575b600080fd5b61034361033e36600461408e565b610608565b6040516103509190614421565b60405180910390f35b610361610668565b6040516103509190614665565b61038161037c366004613e60565b6106ff565b60405161035091906143fe565b610343610716565b61034361073a565b6103a6610740565b60405161035093929190614409565b6103bd610769565b60405161035091906143c6565b6103816103d8366004613db0565b610877565b6103e56108ed565b604051610350919061469f565b6103436108f6565b61040d61040836600461414b565b610905565b005b610343610947565b610381610425366004613e60565b61096b565b61040d6109a6565b6103436109ba565b6104426109de565b604051610350919061431b565b61040d610a02565b610361610a56565b610343610ab7565b61047a610475366004613f8f565b610aca565b604051610350929190614678565b610490610ae8565b604051610350929190614691565b610343610b26565b6103436104b4366004613d5c565b610cbb565b6104cc6104c7366004613f8f565b610cda565b6040516103509291906143d9565b6103436104e8366004613d5c565b610d9c565b61040d610da7565b610343610f42565b61040d610f47565b610343610513366004614032565b610f59565b610442610fab565b610442610fcf565b610343610536366004613d5c565b610ff3565b61036161100e565b6103436105513660046140ff565b61106f565b61040d610564366004614163565b6110a8565b610381610577366004613e60565b61111a565b61038161058a366004613e60565b611158565b610442611165565b61038161116f565b61040d611180565b6104426111ca565b61040d6105bd366004613df0565b6111ee565b6104cc6105d0366004613f8f565b61126f565b6103436105e3366004613d78565b611306565b610343611343565b6103436113ec565b6104426113f6565b61034361141a565b6000846080015161063561061a610fcf565b6001600160a01b0316336001600160a01b03161460cd61162c565b61064a610640610947565b82146101f461162c565b61065261163a565b61065e8686868661164d565b9695505050505050565b60038054604080516020601f60026000196101006001881615020190951694909404938401819004810282018101909252828152606093909290918301828280156106f45780601f106106c9576101008083540402835291602001916106f4565b820191906000526020600020905b8154815290600101906020018083116106d757829003601f168201915b505050505090505b90565b600061070c338484611772565b5060015b92915050565b7f000000000000000000000000000000000000000000000000000000000000000090565b60025490565b600080600061074d6117da565b1592506107586117f7565b915061076261181b565b9050909192565b604080516003808252608082019092526060918291906020820183803683370190505090507f0000000000000000000000000000000000000000000000000000000000000000817f0000000000000000000000000000000000000000000000000000000000000000815181106107db57fe5b6020026020010181815250506108196107f261183f565b7f0000000000000000000000000000000000000000000000000000000000000000906118fb565b817f00000000000000000000000000000000000000000000000000000000000000008151811061084557fe5b602002602001018181525050670de0b6b3a76400008160008151811061086757fe5b6020908102919091010152905090565b6000806108848533611306565b90506108a8336001600160a01b03871614806108a05750838210155b61019e61162c565b6108b3858585611933565b336001600160a01b038616148015906108ce57506000198114155b156108e0576108e08533858403611772565b60019150505b9392505050565b60055460ff1690565b60006109006113ec565b905090565b61090d611a13565b610915611a5c565b600080610920610ae8565b915091506109396109318383611a6c565b61014f61162c565b61094283611b73565b505050565b7f000000000000000000000000000000000000000000000000000000000000000090565b3360008181526001602090815260408083206001600160a01b0387168452909152812054909161070c9185906109a19086611beb565b611772565b6109ae611a13565b6109b86000611bfd565b565b7f000000000000000000000000000000000000000000000000000000000000000090565b7f000000000000000000000000000000000000000000000000000000000000000090565b610a0a611a13565b610a12611c8e565b610a1c6001611ca2565b7feff3d4d215b42bf0960be9c6d5e05c22cba4df6627a3a523e2acee733b5854c86001604051610a4c91906143fe565b60405180910390a1565b60098054604080516020601f60026000196101006001881615020190951694909404938401819004810282018101909252828152606093909290918301828280156106f45780601f106106c9576101008083540402835291602001916106f4565b6008546000906109009060c0603f611ce4565b60006060610adc888785611cf3611d0a565b97509795505050505050565b6008546000908190670de0b6b3a7640000610b0582602080611ce4565b029250670de0b6b3a7640000610b1e8260406020611ce4565b029150509091565b600080610b31610947565b90506060610b3d610fcf565b6001600160a01b031663f94d4668836040518263ffffffff1660e01b8152600401610b689190614421565b60006040518083038186803b158015610b8057600080fd5b505afa158015610b94573d6000803e3d6000fd5b505050506040513d6000823e601f3d908101601f19168201604052610bbc9190810190613e8b565b50915050610bd181610bcc610769565b611e71565b600080610bdc610ae8565b91509150610be8613acd565b6040518060600160405280610bfb610ab7565b81526020018481526020018381525090506000610c87610c4e867f000000000000000000000000000000000000000000000000000000000000000081518110610c4057fe5b602002602001015184611eda565b867f000000000000000000000000000000000000000000000000000000000000000081518110610c7a57fe5b6020026020010151611f3b565b9050610cb0610ca986600081518110610c9c57fe5b6020026020010151611f47565b8290611f5b565b965050505050505090565b6001600160a01b0381166000908152602081905260409020545b919050565b60608088610ce961061a610fcf565b610cf4610640610947565b6000610cff85611fb2565b15610d2757610d0c611fe1565b610d1e88610d1861073a565b87611ff4565b94509050610d3f565b610d2f61163a565b610d3a8a8987611cf3565b945090505b610d498a826120ea565b835167ffffffffffffffff81118015610d6157600080fd5b50604051908082528060200260200182016040528015610d8b578160200160208202803683370190505b509250505097509795505050505050565b600061071082610ff3565b6000610db1610947565b90506060610dbd610fcf565b6001600160a01b031663f94d4668836040518263ffffffff1660e01b8152600401610de89190614421565b60006040518083038186803b158015610e0057600080fd5b505afa158015610e14573d6000803e3d6000fd5b505050506040513d6000823e601f3d908101601f19168201604052610e3c9190810190613e8b565b505060408051600380825260808201909252919250606091906020820183803683370190505090506dffffffffffffffffffffffffffff81600081518110610e8057fe5b602002602001018181525050610e94613aee565b6040518060800160405280610ea8856106fc565b8152602001838152602001604051806020016040528060008152508152602001600015158152509050610ed9610fcf565b6001600160a01b031663b95cac28853030856040518563ffffffff1660e01b8152600401610f0a9493929190614449565b600060405180830381600087803b158015610f2457600080fd5b505af1158015610f38573d6000803e3d6000fd5b5050505050505050565b600090565b610f4f611a13565b6109b86001611bfd565b60007f000000000000000000000000000000000000000000000000000000000000000082604051602001610f8e9291906142a5565b604051602081830303815290604052805190602001209050919050565b7f000000000000000000000000000000000000000000000000000000000000000090565b7f000000000000000000000000000000000000000000000000000000000000000090565b6001600160a01b031660009081526006602052604090205490565b60048054604080516020601f60026000196101006001881615020190951694909404938401819004810282018101909252828152606093909290918301828280156106f45780601f106106c9576101008083540402835291602001916106f4565b6000836080015161108161061a610fcf565b61108c610640610947565b61109461163a565b61109f8585856120f4565b95945050505050565b6110b0611a13565b6110b8611a5c565b6000806110c3610ae8565b915091506110d46109318383611a6c565b6110e96110e18585611a6c565b61015761162c565b6111147f00000000000000000000000000000000000000000000000000000000000000008585612101565b50505050565b6000806111273385611306565b90508083106111415761113c33856000611772565b61114e565b61114e3385858403611772565b5060019392505050565b600061070c338484611933565b60006109006121d7565b6008546000906109009060ff612251565b611188611a13565b611190611fe1565b61119a6000611ca2565b7feff3d4d215b42bf0960be9c6d5e05c22cba4df6627a3a523e2acee733b5854c86000604051610a4c91906143fe565b7f000000000000000000000000000000000000000000000000000000000000000090565b60007f6e71edae12b1b97f4d1f60370fef10105fa2faae0126114a169c64845d6126c988888861121d8c610ff3565b8960405160200161123396959493929190614536565b604051602081830303815290604052805190602001209050611264888261125b878787612258565b886101f8612297565b610f38888888611772565b6060808861127e61061a610fcf565b611289610640610947565b600061129361163a565b61129b61073a565b6112ed576112aa8a8a876122ee565b945090506112c36112b9610f42565b82101560cc61162c565b6112d560006112d0610f42565b612386565b6112e8896112e1610f42565b8303612386565b610d49565b6112f88a8987611cf3565b94509050610d498982612386565b6000611310610fcf565b6001600160a01b0316826001600160a01b031614156113325750600019610710565b61133c8383612390565b9050610710565b6000806000611350610fcf565b6001600160a01b031663b05f8e48611366610947565b306040518363ffffffff1660e01b815260040161138492919061461c565b60806040518083038186803b15801561139c57600080fd5b505afa1580156113b0573d6000803e3d6000fd5b505050506040513d601f19601f820116820180604052508101906113d49190614184565b5050915091506113e5818301611f47565b9250505090565b60006109006123bb565b7f000000000000000000000000000000000000000000000000000000000000000090565b600061090061183f565b600061142f836115d9565b6060835160010167ffffffffffffffff8111801561144c57600080fd5b50604051908082528060200260200182016040528015611476578160200160208202803683370190505b509050308160008151811061148757fe5b60200260200101906001600160a01b031690816001600160a01b03168152505060005b84518110156114f6578481815181106114bf57fe5b60200260200101518282600101815181106114d657fe5b6001600160a01b03909216602092830291909101909101526001016114aa565b506060835160010167ffffffffffffffff8111801561151457600080fd5b5060405190808252806020026020018201604052801561153e578160200160208202803683370190505b50905060008160008151811061155057fe5b60200260200101906001600160a01b031690816001600160a01b03168152505060005b84518110156115bf5784818151811061158857fe5b602002602001015182826001018151811061159f57fe5b6001600160a01b0390921660209283029190910190910152600101611573565b506115cc87878484612458565b925050505b949350505050565b806115e381612561565b5050565b60006115f783831115600161162c565b50900390565b600061160a8484846125da565b506001901b60001901811b1992909216911b1790565b80820390821102900390565b816115e3576115e381612620565b6109b86116456117da565b61019261162c565b60006116696003841080156116625750600383105b606461162c565b6060611673610769565b905061167f8582611e71565b60008061168a610ae8565b91509150611696613acd565b60405180606001604052806116a9610ab7565b81526020810185905260400183905290506000895160018111156116c957fe5b141561172d576116f089606001518589815181106116e357fe5b602002602001015161264a565b60608a015260006117028a8a84612656565b90506117218186898151811061171457fe5b602002602001015161271d565b955050505050506115d1565b61174189606001518588815181106116e357fe5b60608a015260006117538a8a84612729565b905061172181868a8151811061176557fe5b60200260200101516127de565b6001600160a01b0380841660008181526001602090815260408083209487168084529490915290819020849055517f8c5be1e5ebec7d5bd14f71427d1e84f3dd0314c0f7b2291e5b200ac8c7c3b925906117cd908590614421565b60405180910390a3505050565b60006117e461181b565b42118061090057505060075460ff161590565b7f000000000000000000000000000000000000000000000000000000000000000090565b7f000000000000000000000000000000000000000000000000000000000000000090565b60006118496113f6565b6001600160a01b0316633648b3996040518163ffffffff1660e01b815260040160206040518083038186803b15801561188157600080fd5b505afa9250505080156118b1575060408051601f3d908101601f191682019092526118ae91810190613f77565b60015b6118f4573d8080156118df576040519150601f19603f3d011682016040523d82523d6000602084013e6118e4565b606091505b506118ee816127ea565b506106fc565b90506106fc565b600082820261191f84158061191857508385838161191557fe5b04145b600361162c565b670de0b6b3a7640000815b04949350505050565b61194a6001600160a01b038416151561019861162c565b6119616001600160a01b038316151561019961162c565b61196c838383610942565b6001600160a01b03831660009081526020819052604090205461199290826101a0612871565b6001600160a01b0380851660009081526020819052604080822093909355908416815220546119c19082611beb565b6001600160a01b0380841660008181526020819052604090819020939093559151908516907fddf252ad1be2c89b69c2b068fc378daa952ba7f163c4a11628f55a4df523b3ef906117cd908590614421565b6000611a426000357fffffffff0000000000000000000000000000000000000000000000000000000016610f59565b9050611a59611a518233612887565b61019161162c565b50565b6109b8611a67610fcf565b612970565b6000806000611a79610fcf565b6001600160a01b031663b05f8e48611a8f610947565b7f00000000000000000000000000000000000000000000000000000000000000006040518363ffffffff1660e01b8152600401611acd92919061461c565b60806040518083038186803b158015611ae557600080fd5b505afa158015611af9573d6000803e3d6000fd5b505050506040513d601f19601f82011682018060405250810190611b1d9190614184565b5050915091506000611b59828401611b547f0000000000000000000000000000000000000000000000000000000000000000612a22565b61264a565b905085811015801561065e57509390931115949350505050565b611b8664e8d4a5100082101560cb61162c565b611b9c67016345785d8a000082111560ca61162c565b600854611bad908260c0603f6115fd565b6008556040517fa9ba3ffe0b6c366b81232caab38605a0699ad5398d6cce76f91ee809e322dafc90611be0908390614421565b60405180910390a150565b60008282016108e6848210158361162c565b8015611c1d57611c18611c0e6117f7565b421061019361162c565b611c32565b611c32611c2861181b565b42106101a961162c565b600780547fffffffffffffffffffffffffffffffffffffffffffffffffffffffffffffff00168215151790556040517f9e3a5e37224532dea67b89face185703738a228a6e8a23dee546960180d3be6490611be09083906143fe565b6109b8611c9961116f565b156101b561162c565b600854611cb1908260ff612afc565b6008556040517feff3d4d215b42bf0960be9c6d5e05c22cba4df6627a3a523e2acee733b5854c890611be09083906143fe565b6001901b6000190191901c1690565b60006060611d026103e6612620565b935093915050565b333014611df9576000306001600160a01b0316600036604051611d2e9291906142d5565b6000604051808303816000865af19150503d8060008114611d6b576040519150601f19603f3d011682016040523d82523d6000602084013e611d70565b606091505b505090508060008114611d7f57fe5b60046000803e6000517fffffffff00000000000000000000000000000000000000000000000000000000167f43adbafb000000000000000000000000000000000000000000000000000000008114611ddb573d6000803e3d6000fd5b506020600460003e604060205260243d03602460403e601c3d016000f35b60006060611e0c8686868663ffffffff16565b8051601f1982018390526343adbafb7fffffffffffffffffffffffffffffffffffffffffffffffffffffffffffffffc083015291935091506020027fffffffffffffffffffffffffffffffffffffffffffffffffffffffffffffffdc82016044820181fd5b81518151611e80908290612b0b565b60005b8181101561111457611ebb848281518110611e9a57fe5b6020026020010151848381518110611eae57fe5b60200260200101516118fb565b848281518110611ec757fe5b6020908102919091010152600101611e83565b60008160200151831015611f135781516020830151600091611eff91869003906118fb565b9050611f0b84826115e7565b915050610710565b81604001518311611f25575081610710565b81516040830151600091611eff918603906118fb565b60006108e68383611beb565b600061071082611f5561073a565b906115e7565b6000611f6a821515600461162c565b670de0b6b3a76400008302611f9c841580611f955750670de0b6b3a7640000858381611f9257fe5b04145b600561162c565b6001836001830304018115150291505092915050565b6000808251118015610710575060ff801682806020019051810190611fd791906141c4565b60ff161492915050565b6109b8611fec61116f565b6101b661162c565b60006060600061200384612b18565b90506060865167ffffffffffffffff8111801561201f57600080fd5b50604051908082528060200260200182016040528015612049578160200160208202803683370190505b5090506000612056610f42565b90506000612069898381518110610c9c57fe5b905060006120778583612b2e565b905060005b8a518110156120d957838114156120945760006120ba565b6120ba828c83815181106120a457fe5b60200260200101516118fb90919063ffffffff16565b8582815181106120c657fe5b602090810291909101015260010161207c565b509399929850919650505050505050565b6115e38282612b6e565b60006108e66103e6612620565b6121108183111561014c61162c565b61212b6b0de0b6b39983494c589c000082111561014d61162c565b612143670de0b6b3a7640000825b061561016161162c565b612155670de0b6b3a764000083612139565b61218a670de0b6b3a7640000820460406020612182670de0b6b3a7640000876008549190046020806115fd565b9291906115fd565b6008556040516001600160a01b038416907fd0e27a0d0c2cb09280fa5e4487315455b32afcdcf012dc35b6ef2a0e3c4d1280906121ca9085908590614691565b60405180910390a2505050565b60006121e1610fcf565b6001600160a01b031663aaabadc56040518163ffffffff1660e01b815260040160206040518083038186803b15801561221957600080fd5b505afa15801561222d573d6000803e3d6000fd5b505050506040513d601f19601f820116820180604052508101906109009190614072565b1c60011690565b60408051604180825260808201909252606091829190602082018180368337019050509050836020820152826040820152846060820153949350505050565b60006122a285612c3a565b90506122b86122b2878387612c56565b8361162c565b6122c7428410156101b861162c565b5050506001600160a01b039092166000908152600660205260409020805460010190555050565b600060606123096001600160a01b038616301461015661162c565b6123206001600160a01b038516301461015661162c565b604080516003808252608082019092526dffffffffffffffffffffffffffff91606091906020820183803683370190505090506dffffffffffffffffffffffffffff8160008151811061236f57fe5b602090810291909101015290969095509350505050565b6115e38282612d05565b6001600160a01b03918216600090815260016020908152604080832093909416825291909152205490565b60007f00000000000000000000000000000000000000000000000000000000000000007f00000000000000000000000000000000000000000000000000000000000000007f0000000000000000000000000000000000000000000000000000000000000000612428612d98565b3060405160200161243d9594939291906145f0565b60405160208183030381529060405280519060200120905090565b600080856001600160a01b03166309b2760f866040518263ffffffff1660e01b81526004016124879190614651565b602060405180830381600087803b1580156124a157600080fd5b505af11580156124b5573d6000803e3d6000fd5b505050506040513d601f19601f820116820180604052508101906124d99190613f77565b6040517f66a9c7d20000000000000000000000000000000000000000000000000000000081529091506001600160a01b038716906366a9c7d2906125259084908890889060040161456a565b600060405180830381600087803b15801561253f57600080fd5b505af1158015612553573d6000803e3d6000fd5b509298975050505050505050565b60028151101561257057611a59565b60008160008151811061257f57fe5b602002602001015190506000600190505b82518110156109425760008382815181106125a757fe5b602002602001015190506125d0816001600160a01b0316846001600160a01b031610606561162c565b9150600101612590565b6125e96101008310606461162c565b61261160018210158015611662575061260760ff8461010003611620565b821115606461162c565b61094283821c156101b461162c565b611a59817f42414c0000000000000000000000000000000000000000000000000000000000612d9c565b60006108e683836118fb565b60208301516000906001600160a01b031630141561268057612679848484612e17565b90506108e6565b7f00000000000000000000000000000000000000000000000000000000000000006001600160a01b031684602001516001600160a01b031614156126c957612679848484612f6f565b7f00000000000000000000000000000000000000000000000000000000000000006001600160a01b031684602001516001600160a01b03161415612712576126798484846130ac565b6108e6610135612620565b60006108e68383612b2e565b60408301516000906001600160a01b031630141561274c576126798484846131e4565b7f00000000000000000000000000000000000000000000000000000000000000006001600160a01b031684604001516001600160a01b0316141561279557612679848484613334565b7f00000000000000000000000000000000000000000000000000000000000000006001600160a01b031684604001516001600160a01b031614156127125761267984848461346c565b60006108e68383611f5b565b805160208201517fffffffff00000000000000000000000000000000000000000000000000000000167f43adbafb0000000000000000000000000000000000000000000000000000000081147ffa61cc1200000000000000000000000000000000000000000000000000000000821417612865578160208401fd5b506115e3610165612620565b6000612880848411158361162c565b5050900390565b600073ba1ba1ba1ba1ba1ba1ba1ba1ba1ba1ba1ba1ba1b6128a6610fab565b6001600160a01b0316141580156128c157506128c1836135a4565b156128e9576128ce610fab565b6001600160a01b0316336001600160a01b0316149050610710565b6128f16121d7565b6001600160a01b0316639be2a8848484306040518463ffffffff1660e01b81526004016129209392919061442a565b60206040518083038186803b15801561293857600080fd5b505afa15801561294c573d6000803e3d6000fd5b505050506040513d601f19601f8201168201806040525081019061133c9190613f57565b604080516000808252602082019092526060916129a3565b612990613b18565b8152602001906001900390816129885790505b506040517f0e8e3e840000000000000000000000000000000000000000000000000000000081529091506001600160a01b03831690630e8e3e84906129ec90849060040161432f565b600060405180830381600087803b158015612a0657600080fd5b505af1158015612a1a573d6000803e3d6000fd5b505050505050565b60007f00000000000000000000000000000000000000000000000000000000000000006001600160a01b0316826001600160a01b03161415612a8557507f0000000000000000000000000000000000000000000000000000000000000000610cd5565b7f00000000000000000000000000000000000000000000000000000000000000006001600160a01b0316826001600160a01b03161415612ad157612aca6107f261183f565b9050610cd5565b6001600160a01b038216301415612af15750670de0b6b3a7640000610cd5565b610cd5610135612620565b6001811b1992909216911b1790565b6115e3818314606761162c565b6000818060200190518101906108e691906141e0565b6000612b3d821515600461162c565b670de0b6b3a76400008302612b65841580611f955750670de0b6b3a7640000858381611f9257fe5b82818161192a57fe5b612b856001600160a01b038316151561019b61162c565b612b9182600083610942565b6001600160a01b038216600090815260208190526040902054612bb790826101b2612871565b6001600160a01b038316600090815260208190526040902055612bea612be582612bdf61073a565b90613608565b613616565b60006001600160a01b0316826001600160a01b03167fddf252ad1be2c89b69c2b068fc378daa952ba7f163c4a11628f55a4df523b3ef83604051612c2e9190614421565b60405180910390a35050565b6000612c446123bb565b82604051602001610f8e9291906142e5565b6000612c6882516041146101b961162c565b60208281015160408085015160608601518251600080825295019283905292939092811a91600190612ca1908990859088908890614633565b6020604051602081039080840390855afa158015612cc3573d6000803e3d6000fd5b5050604051601f1901519150506001600160a01b03811615801590612cf95750876001600160a01b0316816001600160a01b0316145b98975050505050505050565b612d1160008383610942565b612d26612be582612d2061073a565b90611beb565b6001600160a01b038216600090815260208190526040902054612d499082611beb565b6001600160a01b0383166000818152602081905260408082209390935591519091907fddf252ad1be2c89b69c2b068fc378daa952ba7f163c4a11628f55a4df523b3ef90612c2e908590614421565b4690565b7f08c379a000000000000000000000000000000000000000000000000000000000600090815260206004526007602452600a808404818106603090810160081b958390069590950190829004918206850160101b01602363ffffff0060e086901c160160181b0190930160c81b60445260e882901c90606490fd5b6000612e9d7f00000000000000000000000000000000000000000000000000000000000000006001600160a01b031685604001516001600160a01b03161480612e9557507f00000000000000000000000000000000000000000000000000000000000000006001600160a01b031685604001516001600160a01b0316145b61013561162c565b6115d18460600151847f000000000000000000000000000000000000000000000000000000000000000081518110612ed157fe5b6020026020010151857f000000000000000000000000000000000000000000000000000000000000000081518110612f0557fe5b6020026020010151612f1d87600081518110610c9c57fe5b867f00000000000000000000000000000000000000000000000000000000000000006001600160a01b03168a604001516001600160a01b031614612f635761361b612f67565b6136795b63ffffffff16565b6000612fcb7f00000000000000000000000000000000000000000000000000000000000000006001600160a01b031685604001516001600160a01b03161480612e95575060408501516001600160a01b0316301461013561162c565b60408401516001600160a01b03163014613026576130218460600151847f00000000000000000000000000000000000000000000000000000000000000008151811061301357fe5b6020026020010151846136e2565b6115d1565b6115d18460600151847f00000000000000000000000000000000000000000000000000000000000000008151811061305a57fe5b6020026020010151857f00000000000000000000000000000000000000000000000000000000000000008151811061308e57fe5b60200260200101516130a687600081518110610c9c57fe5b86613712565b60006131087f00000000000000000000000000000000000000000000000000000000000000006001600160a01b031685604001516001600160a01b03161480612e95575060408501516001600160a01b0316301461013561162c565b60408401516001600160a01b0316301461315e576130218460600151847f00000000000000000000000000000000000000000000000000000000000000008151811061315057fe5b602002602001015184613778565b6115d18460600151847f00000000000000000000000000000000000000000000000000000000000000008151811061319257fe5b6020026020010151857f0000000000000000000000000000000000000000000000000000000000000000815181106131c657fe5b60200260200101516131de87600081518110610c9c57fe5b866137b8565b60006132697f00000000000000000000000000000000000000000000000000000000000000006001600160a01b031685602001516001600160a01b03161480612e9557507f00000000000000000000000000000000000000000000000000000000000000006001600160a01b031685602001516001600160a01b03161461013561162c565b6115d18460600151847f00000000000000000000000000000000000000000000000000000000000000008151811061329d57fe5b6020026020010151857f0000000000000000000000000000000000000000000000000000000000000000815181106132d157fe5b60200260200101516132e987600081518110610c9c57fe5b867f00000000000000000000000000000000000000000000000000000000000000006001600160a01b03168a602001516001600160a01b03161461332f5761381f612f67565b613876565b60006133907f00000000000000000000000000000000000000000000000000000000000000006001600160a01b031685602001516001600160a01b03161480612e95575060208501516001600160a01b0316301461013561162c565b60208401516001600160a01b031630146133e6576130218460600151847f0000000000000000000000000000000000000000000000000000000000000000815181106133d857fe5b6020026020010151846138e0565b6115d18460600151847f00000000000000000000000000000000000000000000000000000000000000008151811061341a57fe5b6020026020010151857f00000000000000000000000000000000000000000000000000000000000000008151811061344e57fe5b602002602001015161346687600081518110610c9c57fe5b8661390a565b60006134c87f00000000000000000000000000000000000000000000000000000000000000006001600160a01b031685602001516001600160a01b03161480612e95575060208501516001600160a01b0316301461013561162c565b60208401516001600160a01b0316301461351e576130218460600151847f00000000000000000000000000000000000000000000000000000000000000008151811061351057fe5b602002602001015184613959565b6115d18460600151847f00000000000000000000000000000000000000000000000000000000000000008151811061355257fe5b6020026020010151857f00000000000000000000000000000000000000000000000000000000000000008151811061358657fe5b602002602001015161359e87600081518110610c9c57fe5b8661398e565b60006135cf7f9f11080e00000000000000000000000000000000000000000000000000000000610f59565b82148061071057506136007f38e9922e00000000000000000000000000000000000000000000000000000000610f59565b909114919050565b60006108e683836001612871565b600255565b6000806136288684611eda565b905060006136368287611f3b565b90506000613644868a6115e7565b9050600061365f84611f5561365985876139e2565b8a6139fc565b905061366b88826115e7565b9a9950505050505050505050565b6000806136868684611eda565b905060006136948287611f3b565b905060006136ab6136a5838b6139e2565b87613a1d565b905060006136b984836115e7565b905060006136c78288613a3d565b90506136d38a826115e7565b9b9a5050505050505050505050565b6000806136ef8484611eda565b905060006137066137008688611beb565b85611eda565b905061065e81836115e7565b60008261372a576137238683611eda565b905061109f565b60006137368684611eda565b90506000613747613700888a611beb565b9050600061375582846115e7565b905060006137638489611f3b565b905061366b61377288846139e2565b82613a1d565b6000806137858484611eda565b9050600061379382876115e7565b905060006137a18286613a3d565b90506137ad86826115e7565b979650505050505050565b6000826137c657508461109f565b60006137d28684611eda565b905060006137e08287611f3b565b905060006137ee878a611beb565b905060006137fc8483611f3b565b9050600061381361380d89846139e2565b85613a1d565b90506136d381896115e7565b60008261382d57508461109f565b60006138398684611eda565b905060006138478287611f3b565b90506000613855868a611beb565b9050600061386a84611f5561365985876139e2565b905061366b81896115e7565b600082613887576137238683613a3d565b60006138938684611eda565b905060006138a18287611f3b565b905060006138b86138b2838b6139e2565b876139fc565b905060006138c68483611beb565b905060006138d48288613a3d565b90506136d3818b6115e7565b6000806138ed8484611eda565b905060006138fe61370086886115e7565b905061065e82826115e7565b6000806139178684611eda565b90506000613928613700888a6115e7565b9050600061393683836115e7565b905060006139448489611f3b565b905061366b61395388846139e2565b826139fc565b6000806139668484611eda565b905060006139748287611beb565b905060006139828286613a3d565b90506137ad81876115e7565b60008061399b8684611eda565b905060006139a98287611f3b565b905060006139b7878a6115e7565b905060006139c58483611f3b565b905060006139d661380d89846139e2565b90506136d388826115e7565b60008282026108e684158061191857508385838161191557fe5b6000613a0b821515600461162c565b50811515600019909201046001010290565b6000613a2c821515600461162c565b818381613a3557fe5b049392505050565b60008160200151831015613a8657815161133c90613a6490670de0b6b3a764000090611beb565b60208401518451613a8091613a7991906118fb565b8690611beb565b90612b2e565b81604001518311613a98575081610710565b815161133c90613ab190670de0b6b3a7640000906115e7565b60408401518451613a8091613ac691906118fb565b86906115e7565b60405180606001604052806000815260200160008152602001600081525090565b60405180608001604052806060815260200160608152602001606081526020016000151581525090565b6040805160a081019091528060008152600060208201819052604082018190526060820181905260809091015290565b803561071081614700565b600082601f830112613b63578081fd5b8135613b76613b71826146d4565b6146ad565b818152915060208083019084810181840286018201871015613b9757600080fd5b60005b84811015613bb657813584529282019290820190600101613b9a565b505050505092915050565b600082601f830112613bd1578081fd5b8151613bdf613b71826146d4565b818152915060208083019084810181840286018201871015613c0057600080fd5b60005b84811015613bb657815184529282019290820190600101613c03565b600082601f830112613c2f578081fd5b813567ffffffffffffffff811115613c45578182fd5b613c586020601f19601f840116016146ad565b9150808252836020828501011115613c6f57600080fd5b8060208401602084013760009082016020015292915050565b80356002811061071057600080fd5b6000610120808385031215613caa578182fd5b613cb3816146ad565b915050613cc08383613c88565b8152613ccf8360208401613b48565b6020820152613ce18360408401613b48565b6040820152606082013560608201526080820135608082015260a082013560a0820152613d118360c08401613b48565b60c0820152613d238360e08401613b48565b60e08201526101008083013567ffffffffffffffff811115613d4457600080fd5b613d5085828601613c1f565b82840152505092915050565b600060208284031215613d6d578081fd5b81356108e681614700565b60008060408385031215613d8a578081fd5b8235613d9581614700565b91506020830135613da581614700565b809150509250929050565b600080600060608486031215613dc4578081fd5b8335613dcf81614700565b92506020840135613ddf81614700565b929592945050506040919091013590565b600080600080600080600060e0888a031215613e0a578283fd5b8735613e1581614700565b96506020880135613e2581614700565b955060408801359450606088013593506080880135613e4381614715565b9699959850939692959460a0840135945060c09093013592915050565b60008060408385031215613e72578182fd5b8235613e7d81614700565b946020939093013593505050565b600080600060608486031215613e9f578081fd5b835167ffffffffffffffff80821115613eb6578283fd5b818601915086601f830112613ec9578283fd5b8151613ed7613b71826146d4565b80828252602080830192508086018b828387028901011115613ef7578788fd5b8796505b84871015613f22578051613f0e81614700565b845260019690960195928101928101613efb565b508901519097509350505080821115613f39578283fd5b50613f4686828701613bc1565b925050604084015190509250925092565b600060208284031215613f68578081fd5b815180151581146108e6578182fd5b600060208284031215613f88578081fd5b5051919050565b600080600080600080600060e0888a031215613fa9578081fd5b873596506020880135613fbb81614700565b95506040880135613fcb81614700565b9450606088013567ffffffffffffffff80821115613fe7578283fd5b613ff38b838c01613b53565b955060808a0135945060a08a0135935060c08a0135915080821115614016578283fd5b506140238a828b01613c1f565b91505092959891949750929550565b600060208284031215614043578081fd5b81357fffffffff00000000000000000000000000000000000000000000000000000000811681146108e6578182fd5b600060208284031215614083578081fd5b81516108e681614700565b600080600080608085870312156140a3578182fd5b843567ffffffffffffffff808211156140ba578384fd5b6140c688838901613c97565b955060208701359150808211156140db578384fd5b506140e887828801613b53565b949794965050505060408301359260600135919050565b600080600060608486031215614113578081fd5b833567ffffffffffffffff811115614129578182fd5b61413586828701613c97565b9660208601359650604090950135949350505050565b60006020828403121561415c578081fd5b5035919050565b60008060408385031215614175578182fd5b50508035926020909101359150565b60008060008060808587031215614199578182fd5b84519350602085015192506040850151915060608501516141b981614700565b939692955090935050565b6000602082840312156141d5578081fd5b81516108e681614715565b600080604083850312156141f2578182fd5b82516141fd81614715565b6020939093015192949293505050565b6001600160a01b03169052565b6000815180845260208085019450808401835b838110156142495781518752958201959082019060010161422d565b509495945050505050565b15159052565b60008151808452815b8181101561427f57602081850181015186830182015201614263565b818111156142905782602083870101525b50601f01601f19169290920160200192915050565b9182527fffffffff0000000000000000000000000000000000000000000000000000000016602082015260240190565b6000828483379101908152919050565b7f190100000000000000000000000000000000000000000000000000000000000081526002810192909252602282015260420190565b6001600160a01b0391909116815260200190565b602080825282518282018190526000919060409081850190868401855b828110156143b957815180516004811061436257fe5b8552808701516143748887018261420d565b50858101518686015260608082015161438f8288018261420d565b5050608090810151906143a48682018361420d565b505060a093909301929085019060010161434c565b5091979650505050505050565b6000602082526108e6602083018461421a565b6000604082526143ec604083018561421a565b828103602084015261109f818561421a565b901515815260200190565b92151583526020830191909152604082015260600190565b90815260200190565b9283526001600160a01b03918216602084015216604082015260600190565b600085825260206001600160a01b038087168285015280861660408501525060806060840152610100830184516080808601528181518084526101208701915084830193508592505b808310156144ba576144a484516146f4565b8252928401926001929092019190840190614492565b508387015193507fffffffffffffffffffffffffffffffffffffffffffffffffffffffffffffff809250828682030160a08701526144f8818561421a565b935050506040850151818584030160c0860152614515838261425a565b92505050606084015161452b60e0850182614254565b509695505050505050565b9586526001600160a01b0394851660208701529290931660408501526060840152608083019190915260a082015260c00190565b60006060820185835260206060818501528186518084526080860191508288019350845b818110156145b2576145a085516146f4565b8352938301939183019160010161458e565b505084810360408601528551808252908201925081860190845b81811015612553576145de83516146f4565b855293830193918301916001016145cc565b9485526020850193909352604084019190915260608301526001600160a01b0316608082015260a00190565b9182526001600160a01b0316602082015260400190565b93845260ff9290921660208401526040830152606082015260800190565b602081016003831061465f57fe5b91905290565b6000602082526108e6602083018461425a565b6000838252604060208301526115d1604083018461421a565b918252602082015260400190565b60ff91909116815260200190565b60405181810167ffffffffffffffff811182821017156146cc57600080fd5b604052919050565b600067ffffffffffffffff8211156146ea578081fd5b5060209081020190565b6001600160a01b031690565b6001600160a01b0381168114611a5957600080fd5b60ff81168114611a5957600080fdfea2646970667358221220c1c4ecebed159610eba754054502925d203822437b692a23ffd53f60289f06a264736f6c63430007010033",
  "linkReferences": {},
  "deployedLinkReferences": {}
}