{
  "_format": "hh-sol-artifact-1",
  "contractName": "BalancerPoolManager",
  "sourceName": "contracts/BalancerPoolManager.sol",
  "abi": [
    {
      "inputs": [
        {
          "internalType": "address",
          "name": "_owner",
          "type": "address"
        }
      ],
      "stateMutability": "nonpayable",
      "type": "constructor"
    },
    {
      "anonymous": false,
      "inputs": [
        {
          "indexed": false,
          "internalType": "address",
          "name": "poolAddress",
          "type": "address"
        },
        {
          "indexed": false,
          "internalType": "uint256",
          "name": "endValue",
          "type": "uint256"
        },
        {
          "indexed": false,
          "internalType": "uint256",
          "name": "endTime",
          "type": "uint256"
        }
      ],
      "name": "AmpUpdateStarted",
      "type": "event"
    },
    {
      "anonymous": false,
      "inputs": [
        {
          "indexed": false,
          "internalType": "address",
          "name": "poolAddress",
          "type": "address"
        }
      ],
      "name": "AmpUpdateStopped",
      "type": "event"
    },
    {
      "anonymous": false,
      "inputs": [
        {
          "indexed": false,
          "internalType": "address",
          "name": "poolAddress",
          "type": "address"
        },
        {
          "indexed": false,
          "internalType": "address",
          "name": "user",
          "type": "address"
        },
        {
          "indexed": false,
          "internalType": "bool",
          "name": "authorized",
          "type": "bool"
        }
      ],
      "name": "SwapFeeAuthenticationChanged",
      "type": "event"
    },
    {
      "anonymous": false,
      "inputs": [
        {
          "indexed": false,
          "internalType": "address",
          "name": "poolAddress",
          "type": "address"
        },
        {
          "indexed": false,
          "internalType": "uint256",
          "name": "newSwapFeePercentage",
          "type": "uint256"
        }
      ],
      "name": "SwapFeePercentageChanged",
      "type": "event"
    },
    {
      "anonymous": false,
      "inputs": [
        {
          "indexed": false,
          "internalType": "address",
          "name": "poolAddress",
          "type": "address"
        },
        {
          "indexed": false,
          "internalType": "contract IERC20",
          "name": "token",
          "type": "address"
        },
        {
          "indexed": false,
          "internalType": "uint256",
          "name": "duration",
          "type": "uint256"
        }
      ],
      "name": "TokenRateCacheDurationChanged",
      "type": "event"
    },
    {
      "inputs": [
        {
          "internalType": "address",
          "name": "poolAddress",
          "type": "address"
        },
        {
          "internalType": "address",
          "name": "user",
          "type": "address"
        }
      ],
      "name": "isUserAuthorizedToManageSwapFeePercentage",
      "outputs": [
        {
          "internalType": "bool",
          "name": "",
          "type": "bool"
        }
      ],
      "stateMutability": "view",
      "type": "function"
    },
    {
      "inputs": [],
      "name": "owner",
      "outputs": [
        {
          "internalType": "address",
          "name": "",
          "type": "address"
        }
      ],
      "stateMutability": "view",
      "type": "function"
    },
    {
      "inputs": [
        {
          "internalType": "address",
          "name": "poolAddress",
          "type": "address"
        },
        {
          "internalType": "address",
          "name": "user",
          "type": "address"
        },
        {
          "internalType": "bool",
          "name": "authorized",
          "type": "bool"
        }
      ],
      "name": "setSwapFeeAuthentication",
      "outputs": [],
      "stateMutability": "nonpayable",
      "type": "function"
    },
    {
      "inputs": [
        {
          "internalType": "address",
          "name": "poolAddress",
          "type": "address"
        },
        {
          "internalType": "uint256",
          "name": "swapFeePercentage",
          "type": "uint256"
        }
      ],
      "name": "setSwapFeePercentage",
      "outputs": [],
      "stateMutability": "nonpayable",
      "type": "function"
    },
    {
      "inputs": [
        {
          "internalType": "address",
          "name": "poolAddress",
          "type": "address"
        },
        {
          "internalType": "contract IERC20",
          "name": "token",
          "type": "address"
        },
        {
          "internalType": "uint256",
          "name": "duration",
          "type": "uint256"
        }
      ],
      "name": "setTokenRateCacheDuration",
      "outputs": [],
      "stateMutability": "nonpayable",
      "type": "function"
    },
    {
      "inputs": [
        {
          "internalType": "address",
          "name": "poolAddress",
          "type": "address"
        },
        {
          "internalType": "uint256",
          "name": "rawEndValue",
          "type": "uint256"
        },
        {
          "internalType": "uint256",
          "name": "endTime",
          "type": "uint256"
        }
      ],
      "name": "startAmplificationParameterUpdate",
      "outputs": [],
      "stateMutability": "nonpayable",
      "type": "function"
    },
    {
      "inputs": [
        {
          "internalType": "address",
          "name": "poolAddress",
          "type": "address"
        }
      ],
      "name": "stopAmplificationParameterUpdate",
      "outputs": [],
      "stateMutability": "nonpayable",
      "type": "function"
    }
  ],
  "bytecode": "0x60a060405234801561001057600080fd5b50604051610ca0380380610ca083398101604081905261002f91610049565b600160005560601b6001600160601b031916608052610077565b60006020828403121561005a578081fd5b81516001600160a01b0381168114610070578182fd5b9392505050565b60805160601c610bf36100ad6000398061014152806102d952806104265280610468528061058152806106b15250610bf36000f3fe608060405234801561001057600080fd5b506004361061007d5760003560e01c80638da5cb5b1161005b5780638da5cb5b146100d3578063b7913e58146100e8578063e55a7ef5146100fb578063f1a24d8a1461010e5761007d565b806306f18e8c146100825780631ba83c451461009757806367db9cd6146100aa575b600080fd5b610095610090366004610921565b610121565b005b6100956100a536600461096f565b6102b9565b6100bd6100b83660046108e9565b6103e9565b6040516100ca9190610ae5565b60405180910390f35b6100db610424565b6040516100ca9190610a0e565b6100956100f63660046108c6565b610448565b6100956101093660046109da565b610561565b61009561011c3660046109af565b610691565b61012961080c565b3373ffffffffffffffffffffffffffffffffffffffff7f000000000000000000000000000000000000000000000000000000000000000016146101a1576040517f08c379a000000000000000000000000000000000000000000000000000000000815260040161019890610af0565b60405180910390fd5b73ffffffffffffffffffffffffffffffffffffffff80841660009081526001602090815260408083209386168352929052205460ff1615158115151415610214576040517f08c379a000000000000000000000000000000000000000000000000000000000815260040161019890610b27565b73ffffffffffffffffffffffffffffffffffffffff8381166000908152600160209081526040808320938616835292905281902080547fffffffffffffffffffffffffffffffffffffffffffffffffffffffffffffff0016831515179055517ff1bcd024691758d4ef1129b06b754f1a9fbc64b341aec523f15ef7e2d970ac6f906102a490859085908590610a2f565b60405180910390a16102b4610825565b505050565b6102c161080c565b3373ffffffffffffffffffffffffffffffffffffffff7f00000000000000000000000000000000000000000000000000000000000000001614610330576040517f08c379a000000000000000000000000000000000000000000000000000000000815260040161019890610af0565b6040517ff4b7964d00000000000000000000000000000000000000000000000000000000815273ffffffffffffffffffffffffffffffffffffffff84169063f4b7964d906103849085908590600401610a91565b600060405180830381600087803b15801561039e57600080fd5b505af11580156103b2573d6000803e3d6000fd5b505050507fbf391dab515ae341f39d42253683efcdc446d58ccef5ac5a895445ed51b6569d8383836040516102a493929190610a60565b73ffffffffffffffffffffffffffffffffffffffff918216600090815260016020908152604080832093909416825291909152205460ff1690565b7f000000000000000000000000000000000000000000000000000000000000000081565b61045061080c565b3373ffffffffffffffffffffffffffffffffffffffff7f000000000000000000000000000000000000000000000000000000000000000016146104bf576040517f08c379a000000000000000000000000000000000000000000000000000000000815260040161019890610af0565b8073ffffffffffffffffffffffffffffffffffffffff1663eb0f24d66040518163ffffffff1660e01b8152600401600060405180830381600087803b15801561050757600080fd5b505af115801561051b573d6000803e3d6000fd5b505050507ff9d59af6a3f57c250245dd9c7ee991cb0fa6343f101b667334f069088503033c8160405161054e9190610a0e565b60405180910390a161055e610825565b50565b61056961080c565b3373ffffffffffffffffffffffffffffffffffffffff7f000000000000000000000000000000000000000000000000000000000000000016146105d8576040517f08c379a000000000000000000000000000000000000000000000000000000000815260040161019890610af0565b6040517f2f1a0bc900000000000000000000000000000000000000000000000000000000815273ffffffffffffffffffffffffffffffffffffffff841690632f1a0bc99061062c9085908590600401610b8d565b600060405180830381600087803b15801561064657600080fd5b505af115801561065a573d6000803e3d6000fd5b505050507f40ec9f0f2e8e77337299f1dc9040998f920fc8fce41d1c70a4495190fa7613f78383836040516102a493929190610ab7565b61069961080c565b3373ffffffffffffffffffffffffffffffffffffffff7f000000000000000000000000000000000000000000000000000000000000000016148061070d575073ffffffffffffffffffffffffffffffffffffffff8216600090815260016020908152604080832033845290915290205460ff165b610743576040517f08c379a000000000000000000000000000000000000000000000000000000000815260040161019890610af0565b6040517f38e9922e00000000000000000000000000000000000000000000000000000000815273ffffffffffffffffffffffffffffffffffffffff8316906338e9922e90610795908490600401610b84565b600060405180830381600087803b1580156107af57600080fd5b505af11580156107c3573d6000803e3d6000fd5b505050507f89d41522342fabac1471ca6073a5623e5caf367b03ca6e9a001478d0cf8be4a182826040516107f8929190610a91565b60405180910390a1610808610825565b5050565b61081e6002600054141561019061082c565b6002600055565b6001600055565b81610808577f08c379a000000000000000000000000000000000000000000000000000000000600090815260206004526007602452600a808304818106603090810160081b83860601918390049283060160101b016642414c230000300160c81b60445261080891839161055e917f42414c0000000000000000000000000000000000000000000000000000000000906242414c90606490fd5b6000602082840312156108d7578081fd5b81356108e281610b9b565b9392505050565b600080604083850312156108fb578081fd5b823561090681610b9b565b9150602083013561091681610b9b565b809150509250929050565b600080600060608486031215610935578081fd5b833561094081610b9b565b9250602084013561095081610b9b565b915060408401358015158114610964578182fd5b809150509250925092565b600080600060608486031215610983578283fd5b833561098e81610b9b565b9250602084013561099e81610b9b565b929592945050506040919091013590565b600080604083850312156109c1578182fd5b82356109cc81610b9b565b946020939093013593505050565b6000806000606084860312156109ee578283fd5b83356109f981610b9b565b95602085013595506040909401359392505050565b73ffffffffffffffffffffffffffffffffffffffff91909116815260200190565b73ffffffffffffffffffffffffffffffffffffffff9384168152919092166020820152901515604082015260600190565b73ffffffffffffffffffffffffffffffffffffffff9384168152919092166020820152604081019190915260600190565b73ffffffffffffffffffffffffffffffffffffffff929092168252602082015260400190565b73ffffffffffffffffffffffffffffffffffffffff9390931683526020830191909152604082015260600190565b901515815260200190565b60208082526012908201527f53656e646572206e6f7420616c6c6f7765640000000000000000000000000000604082015260600190565b60208082526028908201527f4e657720617574686f72697a65642076616c75652069732073616d652061732060408201527f6578697374696e67000000000000000000000000000000000000000000000000606082015260800190565b90815260200190565b918252602082015260400190565b73ffffffffffffffffffffffffffffffffffffffff8116811461055e57600080fdfea26469706673582212203bb7e144f1f3eda18fcb5a63fd12e094deb9fc7c1300a47da89de6900cbcb17064736f6c63430007010033",
  "linkReferences": {},
  "deployedLinkReferences": {}
}